:020000040001F9
:1040000088380020154101002741010029410100A5
:1040100000000000000000000000000000000000A0
:104020000000000000000000000000002B41010023
:1040300000000000000000002D4101002F410100A0
:1040400031410100314101003141010031410100A4
:10405000314101000000000031410100F542010042
:104060003141010031410100314101003141010084
:104070003141010031410100314101003141010074
:1040800031410100F543010031410100314101009E
:104090001D4401003141010025440100314101006E
:1040A000314101003141010000000000000000002A
:1040B0000000000000000000000000000000000000
:1040C0000348854600F0D6F8004800477D640100AB
:1040D00088380020401E00BF00BF00BF00BF00BFE7
:1040E00000BF00BF00BF00BF00BF00BF00BFF1D1D5
:1040F00070470000401E00BF00BF00BF00BF00BFF0
:1041000000BF00BF00BF00BF00BF00BF00BFF1D1B4
:1041100070470000074802680F210A430260064802
:10412000804706480047FEE7FEE7FEE7FEE7FEE7BA
:10413000FEE700002405004089440100C140010061
:1041400030B50B46014600202022012409E00D462F
:10415000D5409D4205D31D469540491B25469540B7
:1041600040191546521E002DF1DC30BD70B50024FB
:104170002546002801DA01244042002901DA012500
:104180004942FFF7DDFFAC4200D04042002C00D096
:10419000494270BD03460B439B0703D009E008C9A1
:1041A000121F08C0042AFAD203E00B78491C0370DE
:1041B000401C521EF9D27047D2B201E00270401C7E
:1041C000491EFBD270470022F6E710B513460A4697
:1041D00004461946FFF7F0FF204610BD10B504460F
:1041E00005E00B780370401C002B00D0491C521EC8
:1041F000F7D2204610BD30B505460020034600E04A
:104200005B1C934205D2EC5CC85C201A01D1002CE7
:10421000F6D130BDF0B51FB40646002082B0054689
:104220004024019100901BE0019922460F46304640
:1042300000F042F8049A059B801A994110D3104669
:104240001946224600F028F8361A8F410197224677
:1042500001200021009F00F01FF838184D41009008
:104260002046641E0028DFDC019B00982946324668
:1042700007B0F0BD064C0125064E05E02046E36878
:1042800007C82B4398471034B442F7D3FFF71CFFFD
:10429000C4890100D489010010B5202A04DB01463D
:1042A000203A9140002010BD914020239C1A0346E3
:1042B000E3401943904010BD10B5202A04DB0846A6
:1042C000203AD040002110BD0B46D340D0402024DE
:1042D000A21A91400843194610BD10B500218A006A
:1042E00005231B07072424021B1984001A5100BF51
:1042F00010BD000070B50F480068002818D00020DD
:104300000C4908600C488068C4B201200B49486021
:104310004B21090161430846FF21FFF727FF4100B8
:10432000401885B2284601F063F900BF00BF00BF06
:1043300070BD00000071004000750040007000403A
:10434000C206D20E01219140014A1160704700005F
:1043500080E200E0C206D20E01219140014A1160C4
:104360007047000000E100E0C206D20E012191403A
:10437000014A11607047000000E200E010B500281B
:1043800019DA1A4A03071B0F083B9B089B00D258F7
:104390008307DC0EFF23A3409A438B071B0E840781
:1043A000E40EA3401A43114B0407240F083CA40851
:1043B000A4001A5118E00E4A03231B02D2188308E6
:1043C0009B00D2588307DC0EFF23A3409A438B0740
:1043D0001B0E8407E40EA3401A43054B032424025A
:1043E0001B198408A4001A5110BD00001CED00E048
:1043F00000E100E010B500200749086000210648F0
:1044000041608160C1600020034940390860486014
:1044100003F0FAFD10BD00004011014010B503F09B
:10442000BFFC10BD70B50C480068002811D00A48C8
:1044300000688047044600BF2546002D07D000BF16
:1044400006A2FF213931284600F0F4FC00BF00BF6E
:1044500001E001F00DFE70BD9C2000202E2E5C536B
:104460006F757263655C73645F636F6D6D6F6E5CB7
:10447000736F66746465766963655F68616E646CAA
:1044800065722E630000000010B501F091FE002857
:1044900005D0074807494860C8130749886101F0FB
:1044A0006DFE002802D001200449886010BD000084
:1044B000DFFF07C000050040006C00400006004020
:1044C000F0B585B005460E46174601200007006985
:1044D00080B268430290029C206801900198000C11
:1044E0000004009008490098884202D0052005B0D9
:1044F000F0BD241D241DB800039021463046039AC8
:10450000FFF748FE0020F2E70000DE45FFB583B06C
:1045100005461E4601200007006980B268430290EC
:10452000029C206801900198000C000400900A4948
:104530000098884202D0052007B0F0BD05988000A1
:10454000001904460834B7003A4621460498FFF79C
:1045500021FE0020F0E700000000DE45FFB583B03B
:1045600005460E46174601200007006980B26843E1
:104570000290B1000298081808300190002408E069
:10458000A0003958019801F0C1FC0198001D01906C
:10459000641C06988442F3DB002007B0F0BD10B520
:1045A00003F0F8FD03F042F910BD10B500F003F878
:1045B00003F0B4FD10BD10B500F0AAFF10BD00005F
:1045C00070B5FFB0FFB090B004460EAE2720005D7E
:1045D000002815D12620015D2520005D814206D1ED
:1045E0002920005D102108432921085508E02620D4
:1045F000005D401CC1B226200155FA21272001553B
:104600002920005D1021084233D12720005D0A389F
:10461000C1B22720015527210A5D2621085D0A2302
:104620000EA9FFF773FF2720035D2620025D13A16B
:1046300001A800F05BF801A803F09FF8002508E04E
:10464000725D17A101A800F051F801A803F095F8D8
:104650006D1C282DF4DB14A003F08FF814210EA894
:1046600000F09CFF142113A800F098FF17A003F09E
:1046700084F801207FB07FB010B070BD70616765B5
:10468000206E6F773A25303278202C776F72642055
:104690006F66667365743A25303278200A00000030
:1046A00025303278200000000A7472616E736665EE
:1046B00072206F6E65207061636B61676520646155
:1046C000746120626567696E200A00007472616E11
:1046D00073666572206F6E65207061636B616765DC
:1046E000206461746120656E64200A000FB410B507
:1046F00004A9074B02AA039800F01CF8044602A97B
:10470000002000F055FA204610BC08BC04B0184741
:10471000B14B010002E008C8121F08C1002AFAD1FB
:1047200070477047002001E001C1121F002AFBD131
:1047300070470000FFB591B00F4605460026F9E02E
:10474000252876D100246D1CFB4A00940121029497
:104750002B780846203B98400346134202D004437E
:104760006D1CF5E728782A280ED002212878024609
:10477000303A092A15D8009A0A235A43303A801849
:104780000C436D1C0090F1E701CF0090002805DA82
:10479000012040030443009840420090022004435B
:1047A0006D1C28782E2815D1042004436D1C287810
:1047B0002A280AD101CF6D1C02900BE002990A222F
:1047C0005143303940186D1C029028780146303929
:1047D0000929F3D928786C2810D006DC4C281AD087
:1047E00068280ED06A2817D104E0742813D07A28DC
:1047F00012D110E00120400504430CE0012109051D
:1048000001E0032109050C436978814203D10120AD
:104810006D1C000524186D1C287803906E281FD08D
:104820000DDC632833D005DC00287DD0582812D158
:10483000BEE010E0642801D069280CD181E0732823
:104840002FD004DC6F2870D0702804D1B2E0752816
:104850006CD078286BD0149A13999047761C68E036
:104860006002400F022807D003280AD004283868C5
:104870000AD03F1D06605CE001CFF1170660416081
:1048800057E001CF068054E03F1D067051E03878B4
:10489000694608740020487404A83F1D0390012055
:1048A00003E001CF03900020C04361070FD5002132
:1048B00001E00199491C029A0191914213DA814267
:1048C000F7DB019A0399895C0029F2D10BE0002102
:1048D00001E00199491C01918142FADB019A039997
:1048E000895C0029F5D101990098139A401A00902B
:1048F0002146149B00F046F901998019461807E0FB
:10490000039803990078491C0391149A13999047CE
:104910000198401E0190401CF2D12146149B139A2D
:10492000009800F01FF903E008E04CE03EE03FE0B3
:1049300086196D1C2878002800D001E7304615B094
:10494000F0BD0A200021049005916002410F022968
:1049500005D001CFC2179446032907D009E0FF1DF7
:10496000FF08FF0079683868083706E000B2C21710
:104970009446042902D140B2C1178C4600226146F8
:10498000944506DA0A460021404291418C462D2189
:1049900002E0210504D52B216A461176012103E0AE
:1049A000E10701D02021F7E7019150E00A200BE058
:1049B000102009E010200490002104200443082066
:1049C0000591029003E00820002105910490600207
:1049D000410F022905D001CF00229446032908D0B7
:1049E00008E0FF1DFF08FF007968386808378C462B
:1049F00003E080B2042900D1C0B200210191210757
:104A000025D5039970292AD0049A1021059B4A4084
:104A10001A4309D16146014306D030216A46117616
:104A20000399517602210191049A0821059B4A407D
:104A30001A430CD16146014301D1610707D53021EA
:104A40006A461176012101910299491E029103994A
:104A5000582909D039A103910FA90F9112E04021E3
:104A60006A4611760121DEE739A1F4E76146059B2C
:104A7000049AFFF7CFFB039B8C469B5C0F9A521E58
:104A80000F92137061460143F0D10F9807A9081ADD
:104A900020300390600704D501200004844302986D
:104AA00001E0012002900399884201DD401A00E0F4
:104AB000002041180290019809180098401A0090AF
:104AC000E00306D42146149B139A009800F05AF88C
:104AD0008619002007E006A9085C149A13999047EC
:104AE0000498761C401C019904908842F3DBE00393
:104AF0000CD52146149B139A009800F043F88619B0
:104B000004E0149A302013999047761C0299481EAD
:104B100002900029F5DC08E00F980F990078491CF5
:104B20000F91149A13999047761C0399481E03908D
:104B30000029F1DCF1E600000928010030313233B0
:104B400034353637383961626364656600000000C9
:104B500030313233343536373839414243444546B3
:104B600000000000F8B5044600251E4617468804DC
:104B700004D405E039462020B0476D1C641EF9D5E9
:104B80002846F8BDFFB50446002581B01E46C8037F
:104B900001D5302700E02027880404D505E03846F9
:104BA0000399B0476D1C641EF9D5284605B0F0BDC9
:104BB0000A68531C0B6010707047F8B504460F4626
:104BC00016460025002030702078002809D0324693
:104BD0003946204601F084FD0546002D01D02846C7
:104BE000F8BDA078002808D03146384600F074FAA5
:104BF0000546002D01D02846F2E7A08800280ADDEE
:104C000033463A460121201D03F0AFFD0546002D35
:104C100001D02846E4E7E06800280BD00020E168D6
:104C200008563246394603F06CFD0546002D01D08A
:104C30002846D5E7208A00280CDD3B4606220221C3
:104C400020461030009603F030FE0546002D01D0BE
:104C50002846C5E7208B00280CDD3B4607220321B0
:104C600020461830009603F020FE0546002D01D0A6
:104C70002846B5E7208C00280CDD3B461522142180
:104C800020462030009603F010FE0546002D01D08E
:104C90002846A5E7A06A002809D032463946A06A0E
:104CA00000F0B2FD0546002D01D0284698E7E06AE5
:104CB000002809D032463946E06A01F0A7FC0546D3
:104CC000002D01D028468BE73420005D002809DD47
:104CD00032463946204602F06BFC0546002D01D0D5
:104CE00028467DE728467BE701468888002807D0CC
:104CF0008868002804D0886800780422104201D116
:104D0000072070470020FCE770B59EB004460521DF
:104D10000191174800680090217868468170382119
:104D200010A8FFF750FA022110A80170002181702D
:104D30000121818001A91291382102A8FFF743FACD
:104D40000121684601846946099102A910A800F072
:104D500001FA054600BF2E46002E06D000BF05A270
:104D60008D21304600F066F800BF00BF1EB070BD58
:104D7000B08901002E2E5C646174615F7472616E93
:104D8000736665722E63000030B585B014216846E5
:104D9000FFF719FA0021684601700020019068466B
:104DA000017240210182B421418273DF044600BFB9
:104DB0002546002D06D000BF05A2AE21284600F0F2
:104DC00039F800BF00BF082001F0FCFC05B030BD81
:104DD0002E2E5C6D61696E2E6300000030B585B0CB
:104DE00014216846FFF7EFF90021684601700020A2
:104DF00001906846017240210182B421418273DF33
:104E0000044600BF2546002D06D000BF04A2E321C2
:104E1000284600F00FF800BF00BF05B030BD00000D
:104E20002E2E5C646174615F7472616E736665726C
:104E30002E63000070B504460D461646082001F0AA
:104E4000C1FC32462946204600F01EFA70BD000023
:104E5000F8B50446194800781C2148431749091D34
:104E60000D5C081F00781C2148431449091D401897
:104E70008068000112490E58042D01D1002007E07E
:104E80000E4800781C2148430C49091D4018406811
:104E90000A49009009781C225143084A121D8918BA
:104EA0000B69111F09781C225143044A121D8918ED
:104EB0000846083022462946B047F8BD182500208C
:104EC0006428002070B503460C4619480068002885
:104ED00001D1082070BD002A01D10720FAE7002B7C
:104EE00001D10720F6E700211CE024204843104DA3
:104EF0002D68285C002814D10125242048430C4E3D
:104F00003668355424204843094D2D6840194470B3
:104F100024204843064D2D68401982611960002005
:104F2000D8E7491C034800788142DEDB0420D1E742
:104F30004C20002050200020FFB581B00E461746BF
:104F40001C4620468107890F01D1012100E0002184
:104F5000002902D1072005B0F0BD002C01D10720A7
:104F6000F9E702F0B5F927490A9808602648067063
:104F70002648046000250CE0002124206843234AD1
:104F80001268115424206843204A12688018017561
:104F90006D1CB542F0DB24207043041903201C492A
:104FA00008701C480460183400250CE0E900194A18
:104FB00012688818002101704170877044601821C0
:104FC00079430C196D1C032DF0DB0020C0431249FE
:104FD0000860002011490870114908701420FFF77B
:104FE000AFF903211420FFF7C9F91420FFF7B2F934
:104FF000019802F047F902F03FF90A4908600020E1
:10500000A9E700006C200020502000204C20002048
:10501000512000205420002058200020682000202B
:10502000692000205C200020FEB504460D4616468F
:1050300016480068002801D10820FEBD14480078F9
:10504000844201D2052D01D20720F6E724206043D7
:105050000E490968085C012801D00820EDE72420EA
:1050600060430A49096840184078012801D1284660
:1050700000E00020074603F0EFFB3B462A462146AE
:105080000096019002F076FFD7E700004C20002048
:105090005020002070B504460D480068002801D15A
:1050A000082070BD0B480078844201D30720F8E740
:1050B0002420604306490968085C012801D00820C3
:1050C000EFE703F0C9FB0546214602F07DFFE8E764
:1050D0004C20002050200020F8B505460C462078D2
:1050E000001D1F2801DD0C20F8BD684679DF06464B
:1050F000002E01D03046F7E703212278501C2070A3
:10510000A95419212278501C2070A95420784119E3
:105110006846008803F020FB2178401820700020AA
:10512000E2E710B50346002000BF03E00C5C1C540E
:10513000441CE0B29042F9DB10BD000070B504469B
:105140000D462A4621460248FFF774FE70BD000056
:10515000EFBEADDEF3B593B00D4600211291119173
:105160001398002814D01398FFF7BEFD0446002CB6
:1051700002D0204615B0F0BD12AA09A91398FFF776
:105180001CFD0446002C01D02046F3E709AE00E0E8
:105190000026002D13D0284602F062FB0446002CA6
:1051A00001D02046E6E711AA01A92846FFF705FD30
:1051B0000446002C01D02046DCE701AF00E00027C8
:1051C00010A803793A46017A304672DFD2E7000030
:1051D00070B505461C2229461448FEF7DBFF002067
:1051E00013490870286800280BD008221148296844
:1051F000FEF7D0FF0F487ADF0446002C08D0204687
:1052000070BD0C487BDF0446002C01D02046F7E738
:105210000020C04308490880002008490870084A57
:1052200000210848FFF74EFEEAE70000FC240020BA
:105230007C2000207E200020882000208620002066
:10524000BD8701009420002010B504462088102856
:1052500006D0112808D012280ED0502810D107E00F
:10526000204601F063FE0CE0204601F081FE08E0DC
:10527000204601F0C1FE04E0204601F047FE00E0B8
:1052800000BF00BF10BD000004460D4616467F2239
:1052900031460948FEF7A2FF002107486030C17778
:1052A00006490D80064804600846008804480068E6
:1052B00072B600BFFEE700007C24002074200020AE
:1052C0007820002010B504462046FFF7BDFF214698
:1052D000034800F0DDF8204601F07CFA10BD000024
:1052E000EC23002070B503460C46002A01D10D4D79
:1052F00000E015882846002111E00512060235431A
:10530000A8B25D5C684005062D0F68400503454066
:10531000A8B205062D0D6D0068404D1CA9B2A14232
:10532000EBDB70BDFFFF0000F7B586B00746144603
:1053300001200007006980B278430490049D28682A
:1053400003900398000C00040190134901988842CF
:1053500004D000202070052009B0F0BD2D1D287854
:1053600020702D1D2078800005902946059A079809
:10537000FEF710FF2078810000220798FFF7B2FFA8
:10538000064605483043029003990298884201D0AE
:105390000520E1E70020DFE70000DE45F7B584B037
:1053A000154601200007006980B20499484307466A
:1053B0003C46A90000220598FFF794FF039020685F
:1053C0000190019880B2029003990298884202D11C
:1053D000002007B0F0BD384600F060FD241D241DFC
:1053E000002607E0B20005988158204600F072FDC3
:1053F000241D761CAE42F5DB2946381D00F086FDE3
:1054000004490398084301903846019900F07EFD55
:105410000020DEE70000DE4570B586B004460E468B
:105420001A4B0FCB01AD0FC50020C043A0823068DE
:10543000A0610020A075214601A862DF0546002D6D
:1054400002D0284606B070BD2178684681750121DA
:105450008182A21C05A90120A0DF0546002D01D0F4
:105460002846EFE73146204601F086FF0546002D2D
:1054700001D02846E6E73146204603F0D9F8054634
:10548000002D01D02846DDE70020DBE7B4890100CC
:1054900070B505460C462088102804D0112807D086
:1054A00050280FD109E02146284601F03BFD0AE0D3
:1054B0002146284601F058FD05E02146284601F026
:1054C00079FD00E000BF00BF70BD37B584B0044671
:1054D0000D46A07D002802D1082007B030BD6846E7
:1054E000008B1E2801DD0720F7E7002000900190C7
:1054F00002900390A18968460180039506A8029056
:10550000012168468170A08A6946A6DFE5E70000B0
:1055100070B500BF002350221A49082002F052F94A
:10552000054600BF2E46002E07D000BF16A2FF2161
:1055300034313046FFF77EFC00BF00BF00BF154886
:1055400002F034F9044600BF2546002D07D000BF05
:105550000DA2FF2138312846FFF76CFC00BF00BFC9
:105560000D4802F071F9044600BF2546002D07D012
:1055700000BF05A2FF213C312846FFF75BFC00BFBE
:1055800000BF70BDEC2000202E2E5C6D61696E2E78
:1055900063000000C5520100357C0100F8B50546E6
:1055A0000E46324629460A48FFF78FFF0446082C6C
:1055B0000CD000BF2746002F07D000BF05A2FF2157
:1055C000B4313846FFF736FC00BF00BFF8BD00001D
:1055D000EC2300202E2E5C6D61696E2E63000000AE
:1055E00010B503221146082001F0D8F810BD0000C4
:1055F00010B5044600200E49C8710846848000F0AA
:1056000009FE002813D10A48C07900280FD009A04C
:1056100002F0B3F80B48007BFF2805DA0948007B4D
:10562000401C0849087302E0FF200649087310BDBA
:105630001C200020737465705F636F756E742B2B74
:10564000200A00003424002070B5054611E002F065
:1056500061F80446204602F06DF8712C01D0512CFF
:1056600006D100BF04A002F088F800BF00BFFEE72B
:1056700000BF002DEBD170BD200A0D457869742163
:105680000A0D000070B5144800781C2148431249E7
:10569000091D45186968A86988420CD30E49087825
:1056A00000F01CF80C484078401E0B494870084632
:1056B0000078401C0870002407484078002809D072
:1056C00001F0E8FC0446002C04D0112C02D0204646
:1056D000FFF7BEFB204670BD1825002000231C21CB
:1056E00041430E4A53541C21414389184B60022305
:1056F0001C21414389188B6000231C2141438918D8
:10570000CB601C21414389180B611C21414389183E
:105710004B611C21414389188B6170471C25002077
:10572000FEB505461D480068401C34D01B48006883
:10573000242148431A4909684018466801F09CFD35
:105740000290184804682146029802F0ADFAC01C85
:105750000190681C01D101F0A1FD0198B04201D275
:10576000304600E0019804192402240A20460E491C
:10577000086000BF01F080FD00900299009802F0DF
:1057800093FAC71C2046029902F08EFA874201D98B
:1057900002F086FC01E001F09BFDFEBD58200020D8
:1057A0004C2000205C200020401501400146088864
:1057B000062808DB08881922D201904205DD0888F6
:1057C000104A904201D0072070474888062808DB1D
:1057D00048881922D201904205DD4888094A904242
:1057E00001D00720F0E70888064A904208D0488890
:1057F000904205D008884A88904201DD0720E3E7FF
:105800000020E1E7FFFF0000F8B506460D4614460C
:105810002078801D1F2801D90C20F8BD3046FFF7E5
:10582000C5FF0746002F01D03846F6E7052122784C
:10583000501C2070A95412212278501C2070A954A9
:1058400022785119308802F087FF217840182070A3
:1058500022785119708802F07FFF2178401820705B
:105860000020DAE710B5044600BF03A2AB212046B2
:10587000FFF7E0FA00BF10BD2E2E5C646174615F1B
:105880007472616E736665722E63000030B587B006
:105890001C216846FEF797FC00200090052040047C
:1058A0000190801002900321684601730021C1819C
:1058B00001740B4805900B4806906846FFF788FC7A
:1058C000044600BF2546002D06D000BF06A2C22117
:1058D0002846FFF7AFFA00BF00BF07B030BD000099
:1058E000C56E0100655801002E2E5C646174615F15
:1058F0007472616E736665722E63000038B51F485E
:1059000000F02AFC002829D11D48007800280AD080
:105910001C484069002820D00020009019484169A7
:105920006846884719E018480078002802D11548D1
:10593000456801E01348856800222946134800683D
:10594000FFF772FB0446002C07D00E488069002840
:1059500003D00C488169204688470AE0094840691D
:10596000002806D001200090064841696846884713
:1059700000BF00200249087038BD00008A200020C6
:105980007C200020FC240020862000209420002081
:1059900010B514484068C105C90D002920D00A4639
:1059A000103A50B200280DDA0E4B1C330407240FB6
:1059B000083CA408A4001B598407E40EE3401B061E
:1059C0009B0F0BE0084B032424021B198408A4003E
:1059D0001B598407E40EE3401B069B0FD8B210BD91
:1059E0000420FCE700ED00E000E100E070B5FFB04E
:1059F000FFB082B00446012189026846FEF7E3FB4E
:105A00006E4647A001F0B9FEFEF7C9FD2820005DF3
:105A1000002857D12920005D8007800F032851D12D
:105A200047A001F0AAFE01212820015549484069FC
:105A3000401C07D00A07126991B2464A5069FEF726
:105A40007FFB02E0012000074069801EC1B22520D3
:105A5000015540484069401C08D0012212071269D4
:105A600091B23C4A5069FEF76BFB02E0012000074F
:105A70004069801EC1B22620015500212720015512
:105A8000302221463046FFF74CFB092232A1304636
:105A9000FFF747FB2F484069401C08D0012212073E
:105AA000126991B22B4A5069FEF74AFB02E00120CD
:105AB00000074069401EC5B20C2269462846FFF720
:105AC0006DFC22E02820005D00281ED025A001F0FA
:105AD00054FE302221463046FFF723FB1D48406923
:105AE000401C08D001221207126991B2194A50696C
:105AF000FEF726FB02E0012000074069401EC5B208
:105B00000C2269462846FFF749FCFEF74EFD1BA014
:105B100001F033FE00207FB07FB002B070BD000006
:105B20006465766963655F636F6E6669672075702B
:105B30006461746520626567696E3A0A000000005E
:105B4000416374697665207468652064657669636D
:105B5000650A000000100010573150524F4A45436B
:105B60005400000055706461746520746865206499
:105B7000657669636520696E666F0A00646576699B
:105B800063655F636F6E66696720757064617465D5
:105B9000206F7665723A0A00F0B5FFB0FFB091B0A1
:105BA0000D46342252A101A8FEF7F4FA0FAC0FAE55
:105BB0000921282041555B4805605B484069401C2D
:105BC00008D001221207126991B2574A5069FEF7B4
:105BD000B7FA02E0012000074069401EC7B20EAAD2
:105BE0000FA93846FFF7A0FB50A001F0C6FD092120
:105BF000304601F0AFFD0D213046093001F0AAFD1D
:105C000008213046163001F0A5FD09224EA120469C
:105C1000FEF7F1FA002806D14EA001F0AEFD0021FA
:105C20005348017231E0092252A12046FEF7E3FAFF
:105C3000002806D152A001F0A0FD01214C480172BC
:105C400023E054A001F099FD002149480172FEF7BC
:105C5000A6FC35484069401C08D001221207126991
:105C600091B2314A5069FEF76BFA02E00120000759
:105C70004069401EC7B20C2201A93846FFF78EFBCF
:105C8000FEF793FC48A001F078FD3948007A00281F
:105C900028D0002136484172092221462038FFF7DA
:105CA00040FA0D222146093131481738FFF739FAF9
:105CB0000822214616312E480A38FFF732FA072209
:105CC00021461E312A48801EFFF72BFA2520015D50
:105CD000274841712620015D254881712720015DFB
:105CE0002348C171224820387FB07FB011B0F0BD89
:105CF000303050524F4A454354555345524E414D12
:105D000045616E64494450415353574F5244534583
:105D10005454494D4553544F52414745494E464FBF
:105D20000000000034200020001000106465766937
:105D300063655F636F6E6669672072656164206F7B
:105D40007665723A0A000000303050524F4A45439F
:105D5000540000000A646576696365206E6F7420E4
:105D6000616374697665206E6F77210A0000000018
:105D70006C240020573150524F4A454354000000D4
:105D80000A64657669636520616374697665210AD2
:105D9000000000000A6465766963652066697273B5
:105DA0007420757365210A00666972737420626CD1
:105DB000655F666C6173685F706167655F77726964
:105DC0007465206F766572200A0000000146144851
:105DD0000078144A127890421DD011480078401C77
:105DE0000F4A107010460078022801D10020107070
:105DF0000B48007880000C4A105808600B4A08686D
:105E000012688018094A1060104600680002000AF3
:105E10001060012070470020086000BFFAE7000012
:105E20006820002069200020602000205C200020E5
:105E3000F0B50346002426E0164E366824277E433C
:105E4000154F3F68F01946689E4203D94668F61A16
:105E500046601CE046689B1B466834190026466075
:105E600006750C4E35680B4F066A3E600669002EBB
:105E700008D00E193602360A86600669C6601668B2
:105E80000662156000BF03480068401CD4D100BF03
:105E9000F0BD0000582000204C20002002210B4AB9
:105EA000516000BF0A4909680029FBD00749886092
:105EB00000BF074909680029FBD00021034A51604F
:105EC00000BF034909680029FBD0704700E5014085
:105ED00000E4014001220B4B5A6000BF0A4A1268DD
:105EE000002AFBD0016000BF074A1268002AFBD0DD
:105EF0000022044B5A6000BF034A1268002AFBD0FC
:105F00007047000000E5014000E4014070B5044620
:105F10000D4600E03DDF0D4800780028FAD1012051
:105F20000B49486000BF0B4800680028FBD0256083
:105F300000BF084800680028FBD0002004494860E2
:105F400000BF044800680028FBD070BD702000200E
:105F500000E5014000E4014010B5002823D0124BB9
:105F6000001F0022196803E0814203D80A464968ED
:105F70000029F9D1002A0AD01368841A9C4204D15E
:105F8000006818181060104602E0506000E01860C9
:105F9000002907D002680B1A934203D10B68D2186C
:105FA00002604968416010BDB02000203EB500BFCE
:105FB0006846007801090901491C0091684600788B
:105FC000F02188431030009000BF0D2216A16846D2
:105FD0007CDF044600BF2546002D06D000BF16A278
:105FE00042212846FEF726FF00BF00BF0020019097
:105FF00002901021684681802021C180002101810A
:10600000FF219131418101A87ADF044600BF254676
:10601000002D06D000BF08A24C212846FEF70AFF3B
:1060200000BF00BF3EBD000057315F535445505381
:106030005F544553540000002E2E5C646174615F10
:106040007472616E736665722E63000070B50446EB
:106050000025264607223146002001F0BFF800281F
:1060600004D0204601F026FE284670BD0120FCE742
:10607000F8B529480078002800D1F8BD2748006805
:10608000002801D1012000E00020054624480068D6
:10609000002801D1012000E00020064600BF002DAD
:1060A00014D168464EDF0446052C01D101250CE0D1
:1060B000002C06D000BF1BA26F212046FEF7BAFEBF
:1060C00003E0164900980968884700BF002E1AD1DE
:1060D0001F480088009069461E48006860DF04463B
:1060E000052C01D101260DE0002C06D000BF0DA229
:1060F00086212046FEF79EFE04E016480068084907
:106100000968884700BF002D02D0002E00D000E0B3
:10611000C5E700BF00BFB0E798200020AC200020FA
:10612000A82000202E2E5C536F757263655C73642B
:106130005F636F6D6D6F6E5C736F667464657669B7
:1061400063655F68616E646C65722E6300000000B9
:10615000A4200020A020002001464888064A12887A
:10616000904206DB4888044A5288904201DC0120B4
:1061700070470020FCE700007E2000200B48008CC8
:10618000C0B2012810D10948808C0007000F0BD144
:106190000648806AF0210840402805D10348C06ABB
:1061A000084201D1012070470020FCE7C00F00F039
:1061B0001748008CC0B2012827D11548808C0007F1
:1061C000000F22D11248806AF021084205D1104800
:1061D000C06A084201D1012070470D48806AF02151
:1061E0000840102805D10A48C06A084201D10120A0
:1061F000F2E70748806AF0210840302805D10448BA
:10620000C06A084201D10120E6E70020E4E700006F
:10621000C00F00F070B504460025608800280FD13B
:10622000207801280CD1A0886080A088002801D0A7
:10623000012000E0022020700020E071012070BDEC
:10624000A0886188884203D1A08860800220F6E798
:10625000A0886188884201DD012000E00220607092
:10626000207801280DD1607802280AD1A0887D21EC
:10627000C900884205DD0120E07106A001F07DFA29
:1062800001E00020E071A0886080607820702846DE
:10629000D5E7000069732073746570200A00000060
:1062A000FEB52B48006801902A48007800903FE036
:1062B0000098C000284909684418257834E018205F
:1062C000684361680F18681CC5B2A078A84200D165
:1062D00000253878022802D0032822D10EE024219C
:1062E000786848431D4909684618307D002804D065
:1062F000786801F0EFFD0020307513E00CE01449E0
:10630000096824225143154A126888180021017532
:106310000F4A016A116000BF0D480068401CEED1B1
:1063200000E000BF00BF00BF6078A842C7D100BF37
:106330000098411EC9B200910028B9D104480168F3
:106340000198814201D00120FEBD0020FCE7000041
:106350005820002051200020542000204C200020F4
:10636000FEB507463F48006802903F48007801901C
:1063700069E00198C0003D49096845185CE0781C57
:1063800007D03E4624207043394909684418276ADB
:1063900023E02978182359436A6850182978491C42
:1063A00029702978AA78914201D100212970466884
:1063B000242171432E4A12688C180178012902D1D8
:1063C000217D002900D037E08168A160C168E160CB
:1063D000016921614169E16100BF2649A06809683E
:1063E000401A0002000A2449884208D22149A068C4
:1063F000096801F059FCE1684018606011E01D482F
:10640000A168006801F050FC0090E16800988142AA
:1064100004D9E1680098081A606001E0002060601B
:1064200000BF0020A060E06001202075801E206277
:10643000304601F0E3FC00BF781CA0D128786978D1
:1064400088429CD100BF0198411EC9B20191002829
:106450008FD1044801680298814201D00120FEBD1D
:106460000020FCE75820002051200020542000206C
:106470004C2000205C200020FFFF7F0086B000241D
:106480000020314908703149087004A8304908607B
:1064900002A848602F488860002003460A22022193
:1064A0000090082001F000F900BF2BA001F065F971
:1064B00000BFFFF795F801F0F9FDFFF729F800E0BC
:1064C000641C00F021FF002801D10A2CF8DB0A2C03
:1064D00001D1012100E000210846FFF7B5F81C4872
:1064E00001F0C6F92448FFF7B1FD01F09FF92249F8
:1064F000891E1748FFF750FB2049086008460068CE
:106500001E3001F0D7FBFFF703F801F007FE10483B
:1065100000F0B2F806E01849891E0D4801F0BEF9F6
:1065200000F098FD0A4840690128F4D00848406905
:10653000022801D101F07CFE11A001F01EF900BF7C
:1065400000F088FDFCE70000302000203120002012
:10655000342400201C200020200A0D537461727422
:106560003A20746869732069732070726F6A65637A
:1065700074205731200A00000A2400202C2000201B
:106580000A20456E643A207468697320697320702C
:10659000726F6A65637420573120200A0000000082
:1065A000F0B50B30C108C900144F0026144A0FE0A3
:1065B00003688B420BD38B4205D95C1A431845689C
:1065C0005D601C6000E04368136002C004E0021DCF
:1065D00010680028ECD13046002803D13868002824
:1065E00001D00020F0BD064A06481060064A121A83
:1065F000D208D20044C001203860D7E7B420002080
:10660000B02000208C28002088300020F8B50546F6
:106610000E4614462879801CC7B22078801CC01909
:106620001F2801DD0C20F8BD781CC1B22278501C57
:106630002070B154FF212278501C2070B154227870
:106640009119288802F088F8217840182070A888CD
:1066500000280EDDA868002801D10720E3E7AA88FA
:1066600023789819A968FDF795FD207829794018B5
:1066700020700020D7E7000010B504460848007AD3
:10668000002805D007A001F078F80120606110BD56
:106690000BA001F072F80220606100BFF7E7000074
:1066A0006C2400200A20676F20746F2053544550DB
:1066B0005F434F554E5445525F4D4F4445200A00AD
:1066C0000A20676F20746F20444154415F54524147
:1066D0004E5346455245525F4D4F4445200A0000F7
:1066E000F7B584B004460F4606980678B01C1F28FC
:1066F00003DC6078801C1F2802DD0C2007B0F0BD91
:106700001F20801B801E85B20295B11C781802A93B
:106710007DDF03900398002801D00398EEE72078EE
:10672000022808D168460089A84204DC09200190AB
:10673000684605890BE0082001906078002804D0A5
:106740006078A84201DC657801E068460589681C2C
:10675000C2B23046711CCEB23A543046721CD6B228
:106760000199395406980178A81C0818C1B20698F6
:1067700001700020C2E710B58A0005231B0707241B
:1067800024021B1984001A5110BD01210522120791
:1067900007231B02D2188300D150704730B5130471
:1067A0008C0023430524240707252D026419850046
:1067B000635130BD01218140014AD1607047000022
:1067C0000005005001218140014A9160704700009E
:1067D00000050050F8B5044600252088142841D053
:1067E00006DC10280BD0112816D013285DD125E027
:1067F000172831D0192849D0522856D125E033A086
:1068000000F0BBFF0820FFF7DDFF0820FFF7D2FFF5
:10681000A0883249088049E031A000F0AEFF012095
:10682000344908700820FFF7C5FF0020C0432B49FA
:106830000880002D01D1FEF7A7FA37E02E4A00218B
:10684000264800887FDF054630E0002211462348B5
:106850000088A9DF054629E03222A11D2748FDF75F
:1068600099FC23E0254EB61D3188E089814206D18E
:10687000002231461948008881DF054605E00022E4
:1068800011461648008881DF05460FE0A0790028F0
:106890000AD10820FFF78EFF032211460820FFF7D8
:1068A0007DFF01201349087000E000BF00BF00BF5A
:1068B0002F46002F07D000BF11A2FF210C31384610
:1068C000FEF7B8FA00BF00BFF8BD0000636F6E6E40
:1068D0006563746564206F6B0A000000042000206B
:1068E000646973636F6E6E6563746564206F6B0AB1
:1068F00000000000302000200A200020B8200020E6
:106900002E2E5C6D61696E2E6300000030B585B07F
:1069100005460322B8A12846FDF76DFC002845D1A5
:10692000B64800682030007A002824D00D22B348F1
:1069300001680931E81CFDF75EFC00280DD1AF4865
:1069400000682030407A08210843AC4909682031AA
:106950004872ABA000F011FF4CE1A848006820305D
:10696000407AF7210840A549096820314872AEA055
:1069700000F003FF3EE10D22E91CA0480068093049
:10698000FEF7CFFB9D4800682030407A0121084384
:106990009A490968203148720D21984800680930E9
:1069A00000F0D8FEA7A000F0E8FE23E10B22AFA183
:1069B0002846FDF720FC002843D1AF480078002886
:1069C0003BD007228D4801681E316846FEF7A9FBBF
:1069D00032206946C87101208872884909682031CF
:1069E0008A798649096820314979511AFA22514336
:1069F000824A12682032D27988180A21FDF7B6FB44
:106A000084B22046E117090E091809120902611A19
:106A1000CAB269460A72E117090E091909040A0E79
:106A200069464A720B216846FEF7B8FD93A000F054
:106A3000A4FE684601F03EF9DCE09EA000F09DFE59
:106A4000D8E008229EA12846FDF7D5FB00280ED1EC
:106A50009EA000F092FE032211460820FFF79EFE42
:106A600001209E4908709EA000F087FEC2E00D2222
:106A70009FA12846FDF7BFFB002807D1A0A000F08A
:106A80007CFE5E480068FDF79BFDB3E00D22A5A1EA
:106A90002846FDF7B0FB002887D00E22A3A1284688
:106AA000FDF7A9FB00280FD1A4A000F066FE534813
:106AB00000682030407A102108435049096820318D
:106AC000487200F0E3FD95E00922A1A12846FDF7F8
:106AD00092FB00284CD1494800682030007A0028F9
:106AE0001CD0464800682030407A082108420AD06D
:106AF0000D219AA0FEF752FD01205F4908709BA06E
:106B000000F03BFE76E00C21A2A0FEF747FD00203E
:106B100059490870A2A000F030FE6BE037480068C9
:106B20002030407AC007C00F1ED007222946093105
:106B3000324800681E30FEF7F4FA30480068203012
:106B4000407A022108432D490968203148722B48B8
:106B500000681E3001F0AEF80C219CA0FEF71EFD6F
:106B60009DA000F00AFE45E0A1A000F006FE41E075
:106B70000922ABA12846FDF73EFB002805D1ABA0BA
:106B800000F0FBFD00F082FD34E00B22ABA12846B3
:106B9000FDF731FB002805D1ABA000F0EEFD01F0C0
:106BA000BDFA27E00A22ACA12846FDF724FB002805
:106BB00005D1ACA000F0E1FD01F0ECFA1AE00D22E5
:106BC000ACA12846FDF717FB002805D1ADA000F0C9
:106BD000D4FD01F055FB0DE00522B0A12846FDF7DC
:106BE0000AFB002803D1AFA000F0C7FD02E0B0A06F
:106BF00000F0C3FD05B030BD49443A002C20002010
:106C00000A416374697665642C20436865636B2070
:106C10004944206F6B2C207468656E205345542DB9
:106C200054494D450A0000000A4163746976656461
:106C30002C20436865636B204944206661696C21A0
:106C400021210A000A556E616369747665642C20FF
:106C5000536574204944206F6B2C207468656E2046
:106C60005345542D54494D450A00000044455649AA
:106C700043452D494E464F00312000205065726D2E
:106C8000697373696F6E2061677265652C20444576
:106C9000564943452D494E464F206F6B2C20746852
:106CA000656E205452414E534645522D4441544145
:106CB000200A00000A4E6F20616374696F6E0A003B
:106CC00073687574646F776E000000007368757484
:106CD000646F776E206E6F77210A000030200020ED
:106CE00073687574646F776E206F766572210A0021
:106CF0005452414E534645522D44415441000000E8
:106D00005452414E534645522D44415441202C206B
:106D10006F6E65207061636B61676520737461726B
:106D2000740A00004552524F520000005452414E26
:106D3000534645522D4F5645520000005452414E85
:106D4000534645522D4F564552206F6B0A000000A6
:106D50005345542D54494D453A00000041434B2DB5
:106D600049442D4147524545000000004163746984
:106D70007665642C205345542D54494D45206F6B46
:106D80002C207468656E204445564943452D494E74
:106D9000464F0A0041434B2D49442D44454E540073
:106DA000416374697665642C205345542D54494DD4
:106DB00045206661696C2C20666972737420636873
:106DC00065636B2049443A0A0000000041434B2DA3
:106DD00049442D494E495200556E61637469766588
:106DE000642C205345542D54494D45206F6B0A00A7
:106DF000556E616369747665642C205345542D5437
:106E0000494D45206661696C2C205345542D4944F9
:106E100020666972737420706C65617365210A0065
:106E200073686F775F74696D6500000073686F77D2
:106E30005F74696D65206F6B0A00000074696D6591
:106E4000725F73746172740074696D65725F7374DC
:106E5000617274206F6B0A0074696D65725F737480
:106E60006F70000074696D65725F73746F70206F6E
:106E70006B0A00007472616E736665725F7465738D
:106E8000740000007472616E736665725F7465737E
:106E90007420626567696E0A00000000746573748F
:106EA000310000007465737431206F6B0A000000BC
:106EB000636F6D6D616E6420666974206661696CD4
:106EC00065640A0070B505462878002810D13B217A
:106ED0000848008876DF044600BF2646002E06D00C
:106EE00000BF05A2A1213046FDF7A4FF00BF00BFEF
:106EF00070BD00003C2000202E2E5C646174615F38
:106F00007472616E736665722E63000010B504467C
:106F10000822A11D0248FDF73DF9FEF7EFFC10BD68
:106F20008A2000208A8882827047000010B50446BB
:106F3000A08809490880082221460E310748FDF73C
:106F400029F90020064908700648C089002801D1A7
:106F5000FEF7D4FC10BD0000882000208A2000200D
:106F600086200020FC2400200022D2438282704729
:106F700070B505460020C0430A49088000200A4930
:106F800008700A480068FEF785F80446002C07D010
:106F900007488069002803D0054881692046884752
:106FA00070BD000088200020862000209420002052
:106FB000FC24002070B504460E46B51D2988208AA1
:106FC00081420BD1288B022808D1688B012802D17D
:106FD0000121A17501E00021A1750CE02888A1889C
:106FE000884208D1A069002805D02A8B29461A3189
:106FF0002046A369984770BD70B50546AC1D208832
:107000001249C989884220D1208B02281DD100BF96
:1070100000BFA17EE27E120211430846C107C90FDC
:10702000002902D0FEF76AFC0FE009480068FEF76D
:1070300031F80646002E07D004488069002803D0A6
:10704000024881693046884700BF70BDFC2400209B
:107050009420002070B50B480078002801D000F083
:10706000EFFD3DDF044600BF2546002D07D000BFE1
:1070700005A2FF2187312846FDF7DCFE00BF00BFD7
:1070800070BD0000302000202E2E5C6D61696E2ED8
:1070900063000000F8B50F25254800781C214843FF
:1070A0002349091D4418E06800902078042810D175
:1070B0008006006981B20098FDF742F8A169461880
:1070C000304650DF0546002D02D1A069401CA0616A
:1070D00026E02078022823D12769A0693F18A169FA
:1070E00060694118009808180090A1696068461A04
:1070F00001208002864205D2B2083946009851DF4D
:10710000054605E0FF2201323946009851DF054669
:10711000002D04D101218902A0694018A06100BF9F
:10712000002D02D10120024988702846F8BD0000D8
:107130001825002070B505460026174880780128DC
:1071400028D1002014498870022D02D0032D1ED1B1
:1071500019E0114800781C2148430F49091D4418C3
:107160002078042803D16168A069884202D33046A0
:10717000FDF76EFEFEF786FA0646002E02D0304678
:10718000FDF766FE04E00D20FDF762FE00E000BFA3
:1071900000BF00BF70BD00001825002070B5044678
:1071A0000025044804704521042000F005F8054638
:1071B000284670BD3820002038B504460D46240707
:1071C000240F2001694608704D70012302220248F5
:1071D000007801F0BDF938BD38200020F7B50C4625
:1071E00015460026684600780107090F0091684699
:1071F00000780007010E00910023012269460A4829
:10720000007801F0A5F900280CD00749097801227F
:107210001143084613462A46214601F099F90028F1
:1072200000D001263046FEBD38200020F7B582B0E0
:1072300007461446601C00900098FFF7B1F9054618
:1072400000262F7000BF04E00398815D701C295454
:10725000C6B2601C8642F7DBC2B20123294605484C
:10726000007801F075F901902846FEF775FE019847
:1072700005B0F0BD3820002001484068704700008C
:107280000015014010B50446034884600321112015
:10729000FDF774F810BD00000015014010B5012085
:1072A0000004094948600849403948601120FDF749
:1072B00047F81120FDF74EF80120044908602F20FF
:1072C000FCF708FF10BD0000401301400010014012
:1072D00010B5112001218140084A116000BF012032
:1072E0000004074988600649403988600120054943
:1072F00048602F20FCF7EEFE10BD000080E100E0AA
:1073000040130140001001401CB5002401F06AF850
:107310006420FFF743FF002803D00EA000F02DFAF1
:1073200001E020461CBD6846FEF790FE6846807965
:107330001E2807DC684640790C2803DC6846C078C4
:10734000072804DD00F0E4FC06A000F016FA012096
:10735000E8E7000052544320696E69742077656C39
:107360006C0A000074696D655F72657365742077DF
:10737000656C6C0A0000000030B58FB004460D4605
:107380000020079000BF6846007F01090901491CE1
:1073900068460177007FF0218843103069460877FE
:1073A00000BF00BF6846407F01090901491C6846CB
:1073B0004177407FF021884310306946487700BF0D
:1073C0006846807F06218843811C684681771C219E
:1073D00008A8FCF7F8FE08A8007810218843411897
:1073E00008A80170002009900B900C9007A80D9040
:1073F00000200E9021786846817103218180002051
:10740000009000BF6846007801090901491C6846E0
:1074100001700078F021884310306946087000BF81
:1074200000BF6846407801090901491C684641705F
:107430004078F021884310306946487000BF6846A4
:10744000807806218843811C6846817080780821F5
:107450008843014668468170807810218843014640
:1074600068468170807841084900491C68468170EF
:10747000142102A8FCF7A7FE01A802906846039019
:1074800001210182002141821421818260882346EA
:107490000C3302AA08A9A2DF0FB030BD1E2010498C
:1074A00008800846807840084000401C88700846E4
:1074B0008078022188430A498870084680781C2118
:1074C00088430C300649887008468078202188431C
:1074D000034988700720C8701020087170470000A9
:1074E0004420002010B504460448C089401C0349CC
:1074F000C88100BF00BF00F003F810BD3424002095
:1075000070B5012022494860224823494860002084
:107510002249086001202049086000BF00BF062002
:10752000FCF7DBFE072027DF044600BF2546002DC1
:1075300006D000BF1AA254212846FDF77BFC00BFED
:1075400000BF0321072028DF044600BF2546002D89
:1075500006D000BF12A257212846FDF76BFC00BFE2
:1075600000BF072023DF044600BF2546002D06D0BC
:1075700000BF0BA25A212846FDF75CFC00BF00BFEC
:1075800000200649086001200849086070BD00001D
:1075900000730040081000000075004000710040BA
:1075A00073656E736F722E63000000000070004000
:1075B000FEB507460E461446386B002801D1072059
:1075C000FEBD0020019032E0396B0C22019850433F
:1075D0000D182879801CC0B200900098401CC1B2E0
:1075E0002278501C2070B15416212278501C207033
:1075F000B15422789119288801F0AEF8217840180A
:107600002070A88800280EDDA868002801D1072076
:10761000D6E7AA8823789819A968FCF7BBFD2078DB
:107620002979401820700198401CC0B20190342084
:10763000C15D01988142C7DC0020C1E770B50646F4
:107640000B48002101600B48094908603046FDF7EE
:10765000E3FE044600BF2546002D06D000BF06A26B
:1076600071212846FDF7E6FB00BF00BF70BD00009A
:1076700040200020358701002E2E5C646174615F1C
:107680007472616E736665722E6300001CB56C4681
:10769000072221460020FFF7A1FD002802D06846FE
:1076A00000F008FB1CBD0000F8B507460C46154667
:1076B0001E462046FFF769F800213046FFF75BF8C9
:1076C0001048C4604661069800280DD03846FFF780
:1076D0005CF800212846FFF74EF80A4805618760EC
:1076E000012008494031C862074806494862042021
:1076F000086001200549886008600020044988600E
:10770000F8BD00000025004000509D000020004012
:107710000021004000BF054880680128FBD10020FF
:107720000249886002488069C0B270470021004069
:10773000002500400549C86100BF0549C969012904
:10774000FBD10021024AD1617047000000250040B2
:107750000021004070B503460D4600242046641CFD
:107760001E5C05E03046FFF7E5FF2046641C1E5C0A
:10777000002E01D0AC42F5D970BD30B503460025CE
:1077800028466D1C1C5C05E02046FFF7D3FF284609
:107790006D1C1C5C002CF7D130BD70B506460C4644
:1077A000154629462046FDF7C9FC70BD0146002953
:1077B00001D10E207047024801600020FAE7000066
:1077C000A8200020FFB581B00C4616461F46002CAD
:1077D00002D1072005B0F0BD20468107890F01D1F5
:1077E000012100E00021002901D10720F2E70A4829
:1077F00004600A4806800A4807600A49019810DFB9
:107800000546002D01D02846E4E70120064908700E
:10781000162023DFDEE70000A0200020A4200020A7
:107820009C2000209B7701009820002010B511DFDC
:107830000446002C01D0012000E00020014908701E
:10784000204610BD982000200146002901D10E20BD
:107850007047024801600020FAE70000AC200020D9
:1078600001468888002801DD072070470020FCE7DA
:1078700070B5044600256068FEF7E8FB0020A168AB
:107880008880A16848800120A1680870A1684870BC
:107890000020E08120732082284670BDF0B591B0B1
:1078A00004460E46002010900F900E9001200D907F
:1078B000504800682030057AE0896421FCF756FCC6
:1078C00000293ED1E08900283BD04BA0FFF755FFAF
:1078D000207B484909684855092D04D1454800686E
:1078E000405D0F900BE0092D09DD42480068415DC5
:1078F000681E404A1268105C081AC0B20F90681CDB
:10790000C5B23C480068203005720F98002801D1AC
:107910000D9004E00F98052801DB022060610D98AE
:1079200000280CD1208A401C2082208A3C2808DBB9
:107930003BA0FFF722FF01204649087001E000202C
:107940002082272D07D144A0FFF717FF01200E90BA
:107950000020E08120730E98002803D13D48007874
:10796000002844D042A0FFF708FF00270BE0214881
:107970000068C25D43A16846FCF7B8FE6846FFF7A1
:10798000FCFE781CC7B2282FF1DB24A0FFF7F5FE20
:107990004820307045212720815516480068801CFA
:1079A00000F088F939A0FFF7E8FEFCF7F8FD282180
:1079B0001048006800F084F8FCF7F7FD3AA0FFF7E4
:1079C000DCFEB01CFEF742FB48203070094800681E
:1079D0008078FF2805DA074800684078401C7070FE
:1079E00001E0002070700921282081550925109898
:1079F00011B0F0BD342000200A2045766572792050
:107A000033207365636F6E64732C207265636F72CD
:107A1000642073746570206F6E6365200A00000037
:107A200069742077696C6C2073687574646F776E05
:107A30002073696E6365206E6F742072756E6E6957
:107A40006E6720696E2033206D696E757465730AE8
:107A50000000000030200020616E6F7468657220A5
:107A60003930207365636F6E6473200A0000000074
:107A7000777269746520746F20666C617368200A80
:107A80000000000025303278200000000A0D6469F3
:107A90007361626C65206265666F726520666C61F9
:107AA0007368200A00000000656E61626C652061E9
:107AB0006674657220666C617368200A0A000000B3
:107AC000F0B5FFB0FFB091B005460E460021FFA80B
:107AD000C1630EAF324629463846FDF722FB3548D2
:107AE000C079002809D134A0FFF747FE31498879D1
:107AF0000A220EA9FDF752FC0BE034A0FFF73DFE71
:107B00002C48C17982790A2300920EAA0098FCF7CA
:107B100025FD2848C0790A30C1B22648C171C07914
:107B2000FA2810DB23488079401EC1B221488171B8
:107B3000817940796438814202DC1E484179817143
:107B400000211C48C1711B48C27983790EA91846CF
:107B5000FCF7B6FC22A0FFF710FE1648C379827925
:107B600024A101A8FCF7C2FD01A8FFF706FE00242E
:107B700011E028212046FCF7F9FA002902D125A0BE
:107B8000FFF7FBFD3A5D24A101A8FCF7AFFD01A8BA
:107B9000FFF7F3FD641C0748C0798000A042E8DCD1
:107BA0001FA0FFF7EAFDFFA8C06B7FB07FB011B048
:107BB000F0BD00006C2400202041206E6577206617
:107BC0006C61736820706167650A000020436F6E06
:107BD00074696E756520666C6173680A0000000048
:107BE000626567696E207072696E7420666C61737D
:107BF000680A000070616765206E6F773A25303241
:107C000078202C776F7264206F66667365743A25EE
:107C1000303278200A000000253032782000000041
:107C20000A656E64207072696E7420666C61736898
:107C30000A00000010B504462046FFF77BFA10BD8D
:107C400070B50F480068FDF7D1FEFDF761FC0DA08F
:107C5000FFF793FD032211460820FEF79FFD31DF59
:107C6000044600BF2546002D07D000BF0BA2FF2110
:107C70007A312846FDF7DEF800BF00BF70BD000076
:107C80002C200020676F696E6720746F20737973F2
:107C900074656D206F666621200A00002E2E5C6DD3
:107CA00061696E2E630000000246501A0002000A4D
:107CB0007047000030B58BB00446254628786978B7
:107CC000AA78EB78019302920391049028790090AE
:107CD0006B79AA7904A106A8FCF708FD06A8FFF7AE
:107CE0004CFD0BB030BD00003230253032782D25F0
:107CF0003032782D253032782025303278202530EA
:107D000032783A253032783A253032780A0000004D
:107D10001CB508A103C90191009020210F20FFF795
:107D20004BFA002800D11CBD072269460020FFF74E
:107D30007DFAF8E7595923062209190070B504465F
:107D40000D480068002813D00B4AE169A069126849
:107D50009047054600BF2E46002E07D000BF07A261
:107D6000FF2155313046FDF765F800BF00BF02E046
:107D7000A169E069884770BD6C2000202E2E5C53FD
:107D80006F757263655C6170705F636F6D6D6F6E50
:107D90005C6170705F74696D65722E630000000035
:107DA000FEB50020C04301900F4804680F480768E3
:107DB0006846FEF70BF80546FEF772FA0646002DF8
:107DC00005D001AA21460098FEF732F80126019855
:107DD000FEF7C6FA002800D00126002E02D0384651
:107DE000FDF79EFCFEBD00005C2000205820002016
:107DF00010B51420FCF7B8FA10BD0000F0B502462B
:107E000024205043314B1B68C11831480068401C86
:107E100002D12F48026057E02D484B6800682424A7
:107E200060432A4C246800194068834217D82848C8
:107E3000006824235843254B1B68C01840684B68D2
:107E4000C31A2348006824246043204C2468001986
:107E500043601F48006808621D48026034E04B68B8
:107E60001B4D2C6828680DE024254543174E3668C5
:107E7000AD196D685B1B044624254543134E3668D7
:107E8000AD19286A451C07D0242545430F4E366896
:107E9000AD196D689D42E7D3451C0CD024254543A0
:107EA0000A4E3668AD196D68EE1A24254543074F12
:107EB0003F68ED196E604B60086224256543034EF0
:107EC0003668AD192A6200BFF0BD00004C200020CA
:107ED0005820002070B50246244C2168084609E06D
:107EE000904200D108E0014624244443204D2D68EF
:107EF0006419206A441CF3D100BF441C00D170BD3A
:107F0000814209D1194C246824256C43184D2D68F1
:107F10006419246A154D2C6024244443144D2D68A3
:107F20006419636824244443114D2D686419256A3B
:107F300024244C430E4E3668A419256224244C4355
:107F40000B4D2D686419206A441C0CD02424444332
:107F5000074D2D6864196468E51824244443044ED1
:107F60003668A419656000BFC9E7000058200020EA
:107F70004C200020FFB581B005460E461746E900AB
:107F8000104A12688818694600F077FC0446002CF5
:107F900002D1042005B0F0BD012020706660FFF71B
:107FA0006BF9A060E760049820610A986061E900BD
:107FB000044A12688818009900F075FCFFF718FF52
:107FC0000020E7E754200020F8B504460E46E10003
:107FD0000C4A12688818694600F04FFC0546002DCF
:107FE00001D10420F8BD022028706E60E100054A2E
:107FF00012688818009900F056FCFFF7F9FE00207F
:10800000F0E7000054200020F8B51F480068401C2D
:1080100039D00027FFF730F904461C480168204694
:10802000FFF742FE06461848056811E02420684321
:108030001749096844186068B04200D90AE06068CE
:10804000361A6068C719256A2046FFF777FE00BF19
:10805000681CEBD100BF0F4800780F4909788842AF
:1080600009D10D480078401CC0B20B4908700228A5
:1080700001D10020087008480078800007490F509F
:10808000FFF7B6FE00BFF8BD582000205C2000209E
:108090004C20002068200020692000206020002063
:1080A00010B51120FCF760F910BD0000F8B500BF55
:1080B0000020144B062204210090FCF73DFF0546EA
:1080C00000BF2E46002E07D000BF0FA2FF21E331D4
:1080D0003046FCF7AFFE00BF00BF00BF0D4A0121D4
:1080E0000D48FCF7EFFE044600BF2546002D07D0E3
:1080F00000BF05A2FF21E9312846FCF79BFE00BF27
:1081000000BFF8BD3C2100202E2E5C6D61696E2EF3
:1081100063000000E57401001020002070B50EA07F
:10812000FFF72BFB0022134913480068FCF77CFF84
:10813000044600BF2546002D07D000BF0FA2FF2137
:1081400050312846FCF776FE00BF00BF002C02D15C
:108150000DA0FFF712FB70BD6170706C69636174F4
:10816000696F6E5F74696D6572735F737461727449
:108170000A000000D7030000102000202E2E5C6DA6
:1081800061696E2E630000006E6F206572726F72FF
:108190000A00000070B50DA0FFF7EFFA1248006862
:1081A000FCF778FF044600BF2546002D07D000BF2E
:1081B0000EA2FF215F312846FCF73CFE00BF00BF46
:1081C000002C02D10CA0FFF7D8FA70BD20617070AE
:1081D0006C69636174696F6E5F74696D6572735FFA
:1081E00073746F700A000000102000202E2E5C6D4A
:1081F00061696E2E630000006E6F206572726F728F
:108200000A00000070B504460125FDF7CFFE2046A8
:10821000FFF714FA2046FCF777FDFDF737FBFFF771
:108220003DF9284670BD01207047012070470000CD
:1082300010B507A0FFF7A1FAFFF7ACFF0C48FFF756
:10824000E1FF00F017F8FFF7F0FFFFF7ECFF10BDBC
:108250000A20676F20746F20444154415F5452419B
:108260004E5346455245525F4D4F4445200A00004B
:10827000EC23002010B50124FCF7B0FD204610BD12
:1082800010B5FFB0FFB084B014A0FFF776FA19481C
:108290004069401C08D001221207126991B2154AA8
:1082A0005069FBF74DFF02E0012000074069401EC6
:1082B000C4B201AA02A92046FDF736F80EA0FFF7C6
:1082C0005CFA142102A8FDF769F9142107A8FDF74B
:1082D00065F97FB07FB004B010BD00007472616EAC
:1082E000736665725F7465737420626567696E207A
:1082F0000A000000001000107472616E73666572EF
:108300005F7465737420656E64200A00F8B53248A6
:108310000568002030490860080507210902401857
:10832000C6692E4805210907072212028918C8616B
:108330000520000711464018806900902748052154
:1083400009078918886100BF40202549886000BF5F
:1083500000BF8020886000BF0420FBF7CBFE2048D0
:1083600000694006C00F06D01D4800690006C00F16
:1083700001D001241FE00024122716E000BF802056
:108380001749C86000BF0420FBF7B4FE00BF80207F
:108390001349886000BF0420FBF7ACFE1048006959
:1083A0004006C00F01D0012403E038467F1E00289C
:1083B000E4D100BF00BF05200007072109024018D3
:1083C000C6610521090707221202891800988861F1
:1083D000014805602046F8BD004500400D0600003C
:1083E0000005005010B500241A480521090707228E
:1083F00012028918C86105210907891888610020BF
:1084000015498860C8610720144988600620C86043
:108410003320C0044862104AE43A0F493831002042
:1084200044DF0446002C04D00DA1FF201230FCF7DD
:1084300085FE012043DF0446002C04D008A1FF2064
:108440001530FCF77BFE052004490860FFF75EFF4E
:1084500010BD00000C060000004100400045004037
:108460002E2E5C7477695F68775F6D6173746572D7
:108470005F53445F345F342E63000000F8B5054657
:108480000C4617462E4E002C01D10020F8BD012CC1
:1084900004D12C4A2C49002044DF04E0294A083248
:1084A0002949002044DF012042DF002026493839D5
:1084B0008860012023491439086031E000BF224858
:1084C00038388068002802D1701E0600F7D10020DD
:1084D0001D4938398860002E0ED1486001201949A5
:1084E0001439486100BF1848383840680028FAD06D
:1084F000012043DF0020C9E71448806928706D1C03
:10850000601EC0B20446012803D10E4A0E49002065
:1085100044DF002C00D104E001200A49143908622C
:10852000CCE700BF002008493839486000BF064842
:10853000383840680028FAD0012043DF0120A5E741
:10854000204E0000144000403841004000450040EB
:10855000F8B504460E4615461F4600200090002D33
:1085600016DDFFF7D3FE002812D06010094988609D
:10857000E007C00F06D03A4629463046FFF77EFF97
:10858000009005E03A462946304600F005F8009094
:108590000098F8BD8045004030B50346204C0029C6
:1085A00001D1002030BD18781E4DE8615B1C012010
:1085B0001D4DA86022E000BF1C48C069002802D100
:1085C000601E0400F8D1002C0CD10020174D68600B
:1085D0000120154D686100BF144840680028FBD099
:1085E0000020DFE70020114DE861481EC0B2010005
:1085F00000D104E018780B4DE8615B1CDBE700BF9D
:10860000002A0AD00020094D68600120064D6861EB
:1086100000BF064840680028FBD00120C2E70000E8
:10862000204E000000450040004000400041004056
:1086300030B58FB004460D461C2108A8FBF7C3FDDA
:1086400008A8007808218843411808A80170002074
:1086500009900B900C900D900E90217868468172D5
:10866000022101810020019000BF684600790109C4
:108670000901491C684601710079F02188431030D6
:108680006946087100BF00BF6846407901090901C9
:10869000491C684641714079F02188431030694691
:1086A000487100BF6846807906218843811C68466E
:1086B00081718079082188430146684681718079FB
:1086C000102188430146684681718079410849003C
:1086D000491C68468171142103A8FBF774FD02A8A8
:1086E000039001A804900121684681820021C18283
:1086F000142101836088231D03AA08A9A2DF0FB0FB
:1087000030BD30B503461078C01C1F2801DD0C2099
:1087100030BD02241578681C10704C550A24157859
:10872000681C10704C551578681C10704B55002053
:10873000EEE7000070B506460C4615460020605571
:108740002046FFF71AF803A0FFF717F82046FEF7B8
:10875000DDF870BD0A00000002460A70FF2000022A
:1087600010400012487002207047F8B505460F46C9
:1087700016461C466868002801D10720F8BD2078FD
:10878000801C298840181F2801DD0C20F6E7287876
:10879000401CC1B22278501C2070B1542178481C72
:1087A000207077542A88237898196968FBF7F2FCBF
:1087B00020782978401820700020DFE738B505467A
:1087C00020480088204988423BD020480078401C3F
:1087D0001E4908701E48007B097888420FDB1D493E
:1087E0001848008875DF0446002C07D018488069B7
:1087F000002803D0164881692046884721E00020E0
:10880000124908701248007C00280FD03B210D4807
:10881000008876DF0446002C07D00D4880690028C8
:1088200003D00B4881692046884700BF084840694B
:10883000002806D000200090054841696846884716
:1088400000BF38BD88200020FFFF000086200020E8
:10885000FC2400207E20002010B5FDF799F80128A7
:1088600002D0032804D101E0002403E0012401E048
:10887000022400BF00BF204610BD70B502460B4663
:108880005078411C9078884200D1002110788842AD
:1088900001D1002070BD19605078182670435568CA
:1088A0002C182046F6E741707047FFB581B00746A7
:1088B00015460A9E009602223846049B029900F053
:1088C00014F80446002C02D0204605B0F0BD0096F6
:1088D000102229463846049B00F007F80446002C75
:1088E00001D02046F1E70020EFE7FFB587B006464C
:1088F0001D46109C0020069020780590002747E038
:10890000B900706841180A88684602814988418127
:10891000002203A902A864DF04900498002802D072
:1089200004980BB0F0BD6846017B099881422ED1B6
:108930000698002801D0002000E002200190207855
:108940006946097B4118019808181F2801DD0C2091
:10895000E7E70698002809D12078401C207022788B
:10896000511C08982170A8540120069020784219C3
:1089700003A902A864DF04900498002801D0049899
:10898000CFE720786946097B4018207000BF7F1C24
:108990003088B842B4DC0698002806D021780598C3
:1089A000401C081AC1B2059829540020B9E70000FC
:1089B000010000009ECADC240EE5A9E093F3A3B5F4
:1089C0000000406ED489010000200020B8000000A3
:1089D000144701000024F400FFFF7F7F0000000027
:1089E0000000000000000000000000000000000087
:1089F0000000000000000000000000000000000077
:108A00000000000000000000000000000000000066
:108A1000FFFF000000000000000000000000000058
:108A20000000000000000000000000000000000046
:108A30000000000000000000000000000000000036
:108A40000000000000000000000000000000000026
:108A50000000000000000000000000000000000016
:108A60000000000000000000000000000000000006
:108A700000000000000000000000000000000000F6
:0C8A8000000000000000000000000000EA
:04000005000140C1F5
:00000001FF
