:020000040001F9
:10400000F838002015410100274101002941010035
:1040100000000000000000000000000000000000A0
:104020000000000000000000000000002B41010023
:1040300000000000000000002D4101002F410100A0
:1040400031410100314101003141010031410100A4
:10405000314101000000000031410100ED4201004A
:104060003141010031410100314101003141010084
:104070003141010031410100314101003141010074
:1040800031410100FD44010031410100D5430100EF
:1040900025450100314101002D450100314101005C
:1040A000314101003141010000000000000000002A
:1040B0000000000000000000000000000000000000
:1040C0000348854600F0DEF800480047396D0100DE
:1040D000F8380020401E00BF00BF00BF00BF00BF77
:1040E00000BF00BF00BF00BF00BF00BF00BFF1D1D5
:1040F00070470000401E00BF00BF00BF00BF00BFF0
:1041000000BF00BF00BF00BF00BF00BF00BFF1D1B4
:1041100070470000074802680F210A430260064802
:10412000804706480047FEE7FEE7FEE7FEE7FEE7BA
:10413000FEE700002405004091450100C140010058
:1041400030B50B46014600202022012409E00D462F
:10415000D5409D4205D31D469540491B25469540B7
:1041600040191546521E002DF1DC30BD70B50024FB
:104170002546002801DA01244042002901DA012500
:104180004942FFF7DDFFAC4200D04042002C00D096
:10419000494270BD03460B439B0703D009E008C9A1
:1041A000121F08C0042AFAD203E00B78491C0370DE
:1041B000401C521EF9D27047D2B201E00270401C7E
:1041C000491EFBD270470022F6E710B513460A4697
:1041D00004461946FFF7F0FF204610BD10B504460F
:1041E00005E00B780370401C002B00D0491C521EC8
:1041F000F7D2204610BD421C0178401C0029FBD19B
:10420000801A704730B505460020034600E05B1C6D
:10421000934205D2EC5CC85C201A01D1002CF6D187
:1042200030BDF0B51FB40646002082B005464024DC
:10423000019100901BE0019922460F46304600F0A4
:1042400043F8049A059B801A994110D310461946E9
:10425000224600F029F8361A8F41019722460120A4
:104260000021009F00F020F838184D4100902046B2
:10427000641E0028DFDC019B00982946324607B007
:10428000F0BD0000064C0125064E05E02046E3681F
:1042900007C82B4398471034B442F7D3FFF714FFF5
:1042A000249701003497010010B5202A04DB014651
:1042B000203A9140002010BD914020239C1A0346D3
:1042C000E3401943904010BD10B5202A04DB084696
:1042D000203AD040002110BD0B46D340D0402024CE
:1042E000A21A91400843194610BD0000F8B53048A5
:1042F0000068002820D02F484068FF2109020840AC
:10430000000A042818D1002029490860294880683B
:10431000C4B20120284948604B2109016143084685
:10432000FF21FFF723FF4100401885B2284601F026
:1043300085FD00BF00BF39E01D480068002835D06A
:104340001C484068FF2109020840000A10282DD1AE
:1043500000201749086017488068C5B20120164937
:1043600048604B21090169430846FF21FFF7FEFE23
:104370004100401886B2304601F048F807463946F9
:104380000E4801F02FF90446002C0ED0082C0CD05A
:104390000B48844209D00B48844206D000BF0AA2D1
:1043A0006521204600F0BEFD00BF00BFF8BD000043
:1043B000007100400075004000700040342400206F
:1043C00003300000013400002E2E5C73656E736FA5
:1043D000722E63000548C068002805D000200349FC
:1043E000C860012002498860704700000031014028
:1043F0000030014010B50CA004F01DF808200E4953
:1044000048601320012181400C4A116000BF022046
:104410000B49486004208860002008620120086081
:104420000849086010BD00006C70636F6D702073E8
:1044300074617274200A00000033014000E100E062
:104440000035014000300140C206D20E01219140EA
:10445000014A11607047000080E200E0C206D20EFF
:1044600001219140014A11607047000000E100E025
:10447000C206D20E01219140014A1160704700002E
:1044800000E200E010B5002819DA1A4A03071B0FF2
:10449000083B9B089B00D2588307DC0EFF23A340F8
:1044A0009A438B071B0E8407E40EA3401A43114B5B
:1044B0000407240F083CA408A4001A5118E00E4A6F
:1044C00003231B02D21883089B00D2588307DC0EFB
:1044D000FF23A3409A438B071B0E8407E40EA340DF
:1044E0001A43054B032424021B198408A4001A5103
:1044F00010BD00001CED00E000E100E010B5002060
:10450000074908600021064841608160C1600020C1
:10451000034940390860486004F082FC10BD000087
:104520004011014010B504F047FB10BD70B50C48B8
:104530000068002811D00A4800688047044600BF80
:104540002546002D07D000BF06A2FF21393128469D
:1045500000F0E8FC00BF00BF01E002F0F3F970BD1D
:10456000E42000202E2E5C536F757263655C7364CB
:104570005F636F6D6D6F6E5C736F66746465766993
:1045800063655F68616E646C65722E630000000095
:1045900010B502F077FA002805D0074807494860AF
:1045A000C8130749886102F053FA002802D001209D
:1045B0000449886010BD0000DFFF07C0000500400F
:1045C000006C004000060040F0B585B005460E4680
:1045D000174601200007006980B268430290029CE0
:1045E000206801900198000C000400900849009890
:1045F000884202D0052005B0F0BD241D241DB8005E
:10460000039021463046039AFFF7C4FD0020F2E7ED
:104610000000DE45FFB583B005461E4601200007B9
:10462000006980B268430290029C20680190019862
:10463000000C000400900A490098884202D005202E
:1046400007B0F0BD05988000001904460834B70093
:104650003A4621460498FFF79DFD0020F0E7000050
:104660000000DE45FFB583B005460E461746012023
:104670000007006980B268430290B10002980818F0
:1046800008300190002408E0A0003958019802F099
:10469000B9F80198001D0190641C06988442F3DB70
:1046A000002007B0F0BD10B503F050FD03F01CFF73
:1046B00010BD10B500F003F803F00CFD10BD10B5EF
:1046C00001F0CCFA10BD0000F0B5FFB0FFB091B022
:1046D00004460E460FA90191012E28D10021302059
:1046E00001552720005D002815D12620015D2520D9
:1046F000005D814206D12920005D10210843292157
:10470000085508E02620005D401CC1B22620015556
:10471000FA21272001552920005D1021084217D1D8
:104720002720005D0A38C1B22720015510E0002E75
:104730000ED13020005D401CC1B230200155005D1B
:10474000032805DB2920005D202108432921085585
:104750002720025D2620075D0A230FA93846FFF7B0
:1047600059FF2720035D2620025D14A102A800F056
:104770005DF802A803F05FFE002509E00198425DA4
:1047800017A102A800F052F802A803F054FE6D1C15
:10479000282DF3DB14A003F04EFE14210FA801F026
:1047A000A3FA142114A801F09FFA18A003F043FE05
:1047B00001207FB07FB011B0F0BD0000706167656F
:1047C000206E6F773A25303278202C776F72642014
:1047D0006F66667365743A25303278200A000000EF
:1047E00025303278200000000A7472616E736665AD
:1047F00072206F6E65207061636B61676520646114
:10480000746120626567696E200A00007472616ECF
:1048100073666572206F6E65207061636B6167659A
:10482000206461746120656E64200A000FB410B5C5
:1048300004A9074B02AA039800F01CF8044602A939
:10484000002000F055FA204610BC08BC04B0184700
:10485000F14C010002E008C8121F08C1002AFAD179
:1048600070477047002001E001C1121F002AFBD1F0
:1048700070470000FFB591B00F4605460026F9E0ED
:10488000252876D100246D1CFB4A00940121029456
:104890002B780846203B98400346134202D004433D
:1048A0006D1CF5E728782A280ED0022128780246C8
:1048B000303A092A15D8009A0A235A43303A801808
:1048C0000C436D1C0090F1E701CF0090002805DA41
:1048D000012040030443009840420090022004431A
:1048E0006D1C28782E2815D1042004436D1C2878CF
:1048F0002A280AD101CF6D1C02900BE002990A22EE
:104900005143303940186D1C0290287801463039E7
:104910000929F3D928786C2810D006DC4C281AD045
:1049200068280ED06A2817D104E0742813D07A289A
:1049300012D110E00120400504430CE001210905DB
:1049400001E0032109050C436978814203D101206C
:104950006D1C000524186D1C287803906E281FD04C
:104960000DDC632833D005DC00287DD0582812D117
:10497000BEE010E0642801D069280CD181E07328E2
:104980002FD004DC6F2870D0702804D1B2E07528D5
:104990006CD078286BD0149A13999047761C68E0F5
:1049A0006002400F022807D003280AD00428386884
:1049B0000AD03F1D06605CE001CFF1170660416040
:1049C00057E001CF068054E03F1D067051E0387873
:1049D000694608740020487404A83F1D0390012014
:1049E00003E001CF03900020C04361070FD50021F1
:1049F00001E00199491C029A0191914213DA814226
:104A0000F7DB019A0399895C0029F2D10BE00021C0
:104A100001E00199491C01918142FADB019A039955
:104A2000895C0029F5D101990098139A401A0090E9
:104A30002146149B00F046F901998019461807E0B9
:104A4000039803990078491C0391149A139990478D
:104A50000198401E0190401CF2D12146149B139AEC
:104A6000009800F01FF903E008E04CE03EE03FE072
:104A700086196D1C2878002800D001E7304615B053
:104A8000F0BD0A200021049005916002410F022927
:104A900005D001CFC2179446032907D009E0FF1DB6
:104AA000FF08FF0079683868083706E000B2C217CF
:104AB0009446042902D140B2C1178C4600226146B7
:104AC000944506DA0A460021404291418C462D2148
:104AD00002E0210504D52B216A461176012103E06D
:104AE000E10701D02021F7E7019150E00A200BE017
:104AF000102009E010200490002104200443082025
:104B00000591029003E008200021059104906002C5
:104B1000410F022905D001CF00229446032908D075
:104B200008E0FF1DFF08FF007968386808378C46E9
:104B300003E080B2042900D1C0B200210191210715
:104B400025D5039970292AD0049A1021059B4A4043
:104B50001A4309D16146014306D030216A461176D5
:104B60000399517602210191049A0821059B4A403C
:104B70001A430CD16146014301D1610707D53021A9
:104B80006A461176012101910299491E0291039909
:104B9000582909D039A103910FA90F9112E04021A2
:104BA0006A4611760121DEE739A1F4E76146059BEB
:104BB000049AFFF736FB039B8C469B5C0F9A521EB0
:104BC0000F92137061460143F0D10F9807A9081A9C
:104BD00020300390600704D501200004844302982C
:104BE00001E0012002900399884201DD401A00E0B3
:104BF000002041180290019809180098401A00906E
:104C0000E00306D42146149B139A009800F05AF84A
:104C10008619002007E006A9085C149A13999047AA
:104C20000498761C401C019904908842F3DBE00351
:104C30000CD52146149B139A009800F043F886196E
:104C400004E0149A302013999047761C0299481E6C
:104C500002900029F5DC08E00F980F990078491CB4
:104C60000F91149A13999047761C0399481E03904C
:104C70000029F1DCF1E6000009280100303132336F
:104C80003435363738396162636465660000000088
:104C90003031323334353637383941424344454672
:104CA00000000000F8B5044600251E46174688049B
:104CB00004D405E039462020B0476D1C641EF9D5A8
:104CC0002846F8BDFFB50446002581B01E46C8033E
:104CD00001D5302700E02027880404D505E03846B8
:104CE0000399B0476D1C641EF9D5284605B0F0BD88
:104CF0000A68531C0B6010707047F8B504460F46E5
:104D000016460025002030702078002809D0324651
:104D10003946204602F006F90546002D01D0284606
:104D2000F8BDA078002808D03146384600F04CFA8B
:104D30000546002D01D02846F2E7A08800280ADDAC
:104D400033463A460121201D04F0BEFB0546002DE6
:104D500001D02846E4E7E06800280BD00020E16895
:104D600008563246394604F068FB0546002D01D04E
:104D70002846D5E7208A00280CDD3B460622022182
:104D800020461030009604F040FC0546002D01D06E
:104D90002846C5E7208B00280CDD3B46072203216F
:104DA00020461830009604F030FC0546002D01D056
:104DB0002846B5E7208C00280CDD3B46152214213F
:104DC00020462030009604F020FC0546002D01D03E
:104DD0002846A5E7A06A002809D032463946A06ACD
:104DE00001F032F90546002D01D0284698E7E06A27
:104DF000002809D032463946E06A02F029F8054613
:104E0000002D01D028468BE73420005D002809DD05
:104E100032463946204603F0CFF90546002D01D031
:104E200028467DE728467BE701468888002807D08A
:104E30008868002804D0886800780422104201D1D4
:104E4000072070470020FCE730B59FB00521029194
:104E50001748006801901748017868468171382129
:104E600011A8FFF7B0F9022110A80171002181718A
:104E70000121018102A91391382103A8FFF7A3F9A9
:104E800001216846818401A90A9103A911A800F0B3
:104E90006BFB044600BF2546002D06D000BF06A2CE
:104EA0008021284600F03EF800BF00BF1FB030BD93
:104EB000109701004C2400202E2E5C646174615F09
:104EC0007472616E736665722E63000030B585B0D2
:104ED00014216846FFF777F9002168460170002029
:104EE00001906846017240210182B421418273DF42
:104EF000044600BF2546002D06D000BF04A2D621DF
:104F0000284600F00FF800BF00BF05B030BD00001C
:104F10002E2E5C646174615F7472616E736665727B
:104F20002E63000070B504460D461646082002F0B8
:104F300075F832462946204600F030FC70BD00006E
:104F4000F8B50446194800781C2148431749091D43
:104F50000D5C081F00781C2148431449091D4018A6
:104F60008068000112490E58042D01D1002007E08D
:104F70000E4800781C2148430C49091D4018406820
:104F80000A49009009781C225143084A121D8918C9
:104F90000B69111F09781C225143044A121D8918FC
:104FA0000846083022462946B047F8BD882500202B
:104FB000D428002070B503460C4619480068002824
:104FC00001D1082070BD002A01D10720FAE7002B8B
:104FD00001D10720F6E700211CE024204843104DB2
:104FE0002D68285C002814D10125242048430C4E4C
:104FF0003668355424204843094D2D6840194470C3
:1050000024204843064D2D68401982611960002014
:10501000D8E7491C034800788142DEDB0420D1E751
:105020009420002098200020FFB581B00E4617463E
:105030001C4620468107890F01D1012100E0002193
:10504000002902D1072005B0F0BD002C01D10720B6
:10505000F9E702F031FE27490A98086026480670F1
:105060002648046000250CE0002124206843234AE0
:105070001268115424206843204A12688018017570
:105080006D1CB542F0DB24207043041903201C4939
:1050900008701C480460183400250CE0E900194A27
:1050A00012688818002101704170877044601821CF
:1050B00079430C196D1C032DF0DB0020C04312490D
:1050C0000860002011490870114908701420FFF78A
:1050D000BBF903211420FFF7D5F91420FFF7BEF91F
:1050E000019802F0C3FD02F0BBFD0A4908600020F0
:1050F000A9E70000B4200020982000209420002080
:10510000992000209C200020A0200020B02000201A
:10511000B1200020A4200020FEB504460D4616460E
:1051200016480068002801D10820FEBD1448007808
:10513000844201D2052D01D20720F6E724206043E6
:105140000E490968085C012801D00820EDE72420F9
:1051500060430A49096840184078012801D128466F
:1051600000E00020074604F027FA3B462A46214685
:105170000096019003F00AFED7E70000942000207B
:105180009820002070B504460D480068002801D121
:10519000082070BD0B480078844201D30720F8E74F
:1051A0002420604306490968085C012801D00820D2
:1051B000EFE704F001FA0546214603F011FEE8E7A7
:1051C0009420002098200020F8B505460C46207851
:1051D000001D1F2801DD0C20F8BD684679DF06465A
:1051E000002E01D03046F7E703212278501C2070B2
:1051F000A95419212278501C2070A95420784119F3
:105200006846008804F057F9217840182070002083
:10521000E2E710B50346002000BF03E00C5C1C541D
:10522000441CE0B29042F9DB10BD000070B50446AA
:105230000D462A4621460248FFF774FE70BD000065
:10524000EFBEADDEF0B591B004460D46207D0028DE
:1052500019D00020099000BF08A8007901090901B0
:10526000491C08A801710079F0218843103008A971
:10527000087100BF697B08A84171807906218843C5
:10528000801C08A988711C210AA8FEF79CFF08A8A9
:10529000007A02218843811C08A80172007A10213B
:1052A0008843217D002901D0012100E0002109016E
:1052B00010221140084308A9087200200B900D909D
:1052C0000E90207D002801D009A800E000200F905A
:1052D0000020109000BF01216846817349498181F7
:1052E00000BF00200290A97B68460172E97B4172F1
:1052F000807A06218843811C68468172807A082161
:105300008843014668468172807A102188430146AD
:1053100068468172807A4108490068468172297B1B
:105320000191142104A8FEF74EFF03A8049002A8DF
:105330000590012168460183002141830121818379
:1053400001A80890A088A31D04AA0AA9A2DF064606
:10535000002E02D0304611B0F0BDA86800284DD014
:1053600000BF0121684681732749818100BF002069
:105370000290287C6946087200BF6846407A01099D
:10538000090168464172407AF021884369464872B3
:1053900000BF6846807A06218843811C6846817276
:1053A000807A08218843014668468172807A1021FC
:1053B0008843014668468172807A41084900684600
:1053C0008172A96800F016FC0746142104A8FEF7B4
:1053D000FAFE03A8049002A80590684607830021FE
:1053E0004183018B81830890E08822460E3204A914
:1053F000A3DF0646002E03D03046ACE70020E08154
:105400000020A8E7192A00000829000070B504460A
:105410002348844201DB642540E02148643884420B
:105420000BDD1F49091B3A22514308466421FEF750
:105430009DFE6421081AC5B230E01A4884420CDD92
:1054400017496439091B182251430846A021FEF769
:105450008DFE2A21081AC5B220E0134884420CDDD3
:105460001049091B0C2251430846FF212D31FEF73C
:105470007DFE1221081AC5B210E00C4884420CDDF2
:105480000949091B062251430846FF215531FEF701
:105490006DFE0621081AC5B200E00025284670BD41
:1054A000B80B0000B40A00008809000034080000AE
:1054B00010B5044600F002F810BD000070B50120E0
:1054C000214948602148224948600020214908605C
:1054D00001201F4908600021062001F06EFD072011
:1054E00027DF044600BF2546002D06D000BF1AA2C4
:1054F0009D212846FFF716FD00BF00BF03210720AE
:1055000028DF044600BF2546002D06D000BF12A2AA
:10551000A0212846FFF706FD00BF00BF072023DFBC
:10552000044600BF2546002D06D000BF0AA2A321D5
:105530002846FFF7F7FC00BF00BF002005490860C0
:1055400001200849086070BD007300400810000089
:1055500000750040007100402E2E5C73656E736F05
:10556000722E630000700040F3B593B00D46002129
:10557000129111911398002814D01398FFF754FC3E
:105580000446002C02D0204615B0F0BD12AA09A98D
:105590001398FFF7B2FB0446002C01D02046F3E736
:1055A00009AE00E00026002D13D0284602F0B6FF19
:1055B0000446002C01D02046E6E711AA01A928469E
:1055C000FFF79BFB0446002C01D02046DCE701AF2F
:1055D00000E0002710A803793A46017A304672DFCE
:1055E000D2E7000033B585B004460025207C69462B
:1055F000097E88422FD0012104916846007E2074E4
:10560000E08806AB04AA0021A4DF0546002D02D0E5
:10561000284607B030BD608A1049884219D0207DE5
:10562000002816D0002000900190029003900121E4
:105630000491E18868460180012181700021818008
:1056400004A8029006A80390608A6946A6DF054672
:1056500000E0082500BF2846DBE70000FFFF000050
:10566000F8B504460D46286820600020C0436082DB
:1056700028792075FF20207400BF012168468170C1
:105680000849018000BF221D69460120A0DF0646AF
:10569000002E01D03046F8BD29462046FFF7D2FD46
:1056A000F9E700000F18000070B505460C46208889
:1056B000102804D0112807D050280FD109E0214626
:1056C000284602F098F80AE02146284602F0B8F889
:1056D00005E02146284602F0FBF800E000BF00BFCD
:1056E00070BD000070B505461C2229461448FEF71F
:1056F00051FD002013490870286800280BD00822AB
:1057000011482968FEF746FD0F487ADF0446002C51
:1057100008D0204670BD0C487BDF0446002C01D029
:105720002046F7E70020C0430849088000200849C8
:105730000870084A00210848FFF73CFCEAE700002F
:105740006C250020C4200020C6200020D02000208E
:10575000CE2000201D950100DC20002010B504465D
:105760002088102806D0112808D012280ED05028E2
:1057700010D107E0204602F041F80CE0204602F08C
:1057800063F808E0204602F0CBF804E0204602F07F
:1057900023F800E000BF00BF10BD000004460D4626
:1057A00016467F2231460948FEF718FD00210748BA
:1057B0006030C17706490D800648046008460088BD
:1057C0000448006872B600BFFEE70000EB2400202A
:1057D000BC200020C02000207FB5044600BF01216E
:1057E000684681735D49818100BF5D4A03A901203C
:1057F000A0DF0546002D02D0284604B070BD2088E9
:1058000000280DDD57480090228823463C33564837
:10581000616800F089FA0546002D01D02846ECE7C2
:10582000208900280EDD51480090228923463C3310
:105830004D48401FE16800F077FA0546002D01D081
:105840002846DAE7208A00280EDD49480090228A9F
:1058500023463C334448001F616900F065FA054661
:10586000002D01D02846C8E7208B00280EDD4148D6
:105870000090228B23463C333B48801EE16900F0B8
:1058800053FA0546002D01D02846B6E7208C0028A3
:105890000EDD39480090228C23463C333248C01E2E
:1058A000616A00F041FA0546002D01D02846A4E7C0
:1058B000208D00280EDD31480090228D23463C3398
:1058C0002948401EE16A00F02FFA0546002D01D05C
:1058D000284692E7206B002813D001A8216B03F023
:1058E0006DF8274823463C33082201A900901E4842
:1058F000801F00F019FA0546002D01D028467CE7EC
:1059000000BF606B00280FD01E480090606B0279CA
:1059100023463C3301681448401C00F005FA054654
:10592000002D01D0284668E7A06B002813D001A8FD
:10593000A16B02F023F8144823463C33072201A947
:1059400000900948273000F0EFF90546002D01D0FE
:10595000284652E700BF00204FE700000A18000069
:105960004A2000204C200020292A0000542000203A
:105970005C200020642000206C2000207420002087
:105980007C200020842000208C20002010B50446BC
:105990002046FFF7E3FE2146054800F0E3F82146E4
:1059A0000448FFF781FE204601F040FB10BD0000D7
:1059B0004C2400203424002070B503460C46002AF5
:1059C00001D10D4D00E015882846002111E0051297
:1059D00006023543A8B25D5C684005062D0F68409D
:1059E00005034540A8B205062D0D6D0068404D1C0D
:1059F000A9B2A142EBDB70BDFFFF0000F7B586B096
:105A00000746144601200007006980B278430490DD
:105A1000049D286803900398000C0004019013492A
:105A20000198884204D000202070052009B0F0BD04
:105A30002D1D287820702D1D207880000590294686
:105A4000059A0798FEF7A6FB2078810000220798A8
:105A5000FFF7B2FF064605483043029003990298CB
:105A6000884201D00520E1E70020DFE70000DE45A5
:105A7000F7B584B0154601200007006980B204998B
:105A8000484307463C46A90000220598FFF794FFCB
:105A9000039020680190019880B2029003990298C7
:105AA000884202D1002007B0F0BD384600F072FEF7
:105AB000241D241D002607E0B200059881582046C9
:105AC00000F084FE241D761CAE42F5DB2946381D0D
:105AD00000F098FE04490398084301903846019964
:105AE00000F090FE0020DEE70000DE4570B586B0D5
:105AF00004460E461A4B0FCB01AD0FC50020C04324
:105B0000A0823068A0610020A075214601A862DF54
:105B10000546002D02D0284606B070BD21786846A3
:105B2000817501218182A21C05A90120A0DF054603
:105B3000002D01D02846EFE73146204602F092F9C9
:105B40000546002D01D02846E6E73146204603F001
:105B50000BFC0546002D01D02846DDE70020DBE7E1
:105B60001497010070B505460C462088102804D013
:105B7000112807D050280FD109E02146284601F00E
:105B800037FE0AE02146284601F056FE05E0214690
:105B9000284601F07BFE00E000BF00BF70BD37B5B6
:105BA00084B004460D46A07D002802D1082007B02D
:105BB00030BD6846008B1E2801DD0720F7E7002076
:105BC0000090019002900390A1896846018003959E
:105BD00006A80290012168468170A08A6946A6DF66
:105BE000E5E770B504460D462846FEF704FB208025
:105BF000656070BDF8B505460E4600243278214632
:105C0000641C6A5472782146641C6A5400BF022CDA
:105C100001D1012000E000200746002F05D100BF80
:105C200003A22021FFF77EF900BF00BF2046F8BD88
:105C30002E2E5C536F757263655C626C655C626C82
:105C4000655F73657276696365735C626C655F73CB
:105C500072765F636F6D6D6F6E2E630070B500BFFF
:105C6000002350221A49082002F00AFC054600BF12
:105C70002E46002E07D000BF16A2FF21C2313046AB
:105C8000FFF750F900BF00BF00BF154802F0ECFB62
:105C9000044600BF2546002D07D000BF0DA2FF21FE
:105CA000C6312846FFF73EF900BF00BF0D4802F09D
:105CB00029FC044600BF2546002D07D000BF05A2E1
:105CC000FF21CA312846FFF72DF900BF00BF70BD84
:105CD000B02300202E2E5C6D61696E2E63000000E3
:105CE0008D590100B1890100F8B505460E463246CE
:105CF00029460948FFF753FF0446082C0BD000BF84
:105D00002746002F06D000BF04A2C0213846FFF767
:105D100009F900BF00BFF8BD4C2400202E2E5C6D99
:105D200061696E2E63000000F0B58FB007460D4626
:105D300014461E4600BF002D01D0012000E00020C7
:105D400000900098002805D100BF31A26D21FFF717
:105D5000E9F800BF00BF00BF002C01DD012000E01A
:105D6000002000900098002805D100BF28A26E21D5
:105D7000FFF7D8F800BF00BF1C2107A8FEF723FAE1
:105D80006946087F02218843801C69460877002005
:105D900008900A900B900C900D9000BF012108A86C
:105DA00081766846078700BF0020019031786846F9
:105DB000017171784171807906218843811C6846A0
:105DC0008171807908218843014668468171807914
:105DD0001021884301466846817180794108490055
:105DE00068468171142102A8FEF7EDF90EA8029011
:105DF00001A80390684604820021418284820695AE
:105E000002AA07A90C480088149BA2DF0FB0F0BDBE
:105E10002E2E5C536F757263655C626C655C626CA0
:105E2000655F73657276696365735C626C655F64F8
:105E300069732E63000000004A20002038B5044634
:105E4000012000900020154988720846848014497A
:105E500000F04AFE00281FD11048807A00281BD08D
:105E600010480078002810D10FA002F0E4FA0C4886
:105E7000007BFF2805DA0A48007B401C08490873AC
:105E80000AE0FF200649087306E00BA002F0D3FAEF
:105E900001216846FFF728FF38BD00006824002074
:105EA000A02400202E2000207374657020636F757D
:105EB0006E742B2B200A0000626C65207365747071
:105EC000200A000070B5144800781C21484312498C
:105ED000091D45186968A86988420CD30E490878DD
:105EE00000F01CF80C484078401E0B4948700846EA
:105EF0000078401C0870002407484078002809D02A
:105F000001F0BCFD0446002C04D0112C02D0204628
:105F1000FFF716F8204670BD8825002000231C21BD
:105F200041430E4A53541C21414389184B600223BC
:105F30001C21414389188B6000231C21414389188F
:105F4000CB601C21414389180B611C2141438918F6
:105F50004B611C21414389188B6170478C250020BF
:105F6000FEB505461D480068401C34D01B4800683B
:105F7000242148431A4909684018466801F070FE18
:105F80000290184804682146029802F0AFFDC01C38
:105F90000190681C01D101F075FE0198B04201D258
:105FA000304600E0019804192402240A20460E49D4
:105FB000086000BF01F054FE00900299009802F0C2
:105FC00095FDC71C2046029902F090FD874201D939
:105FD00002F072FF01E001F06FFEFEBDA020002084
:105FE00094200020A420002040150140014608888C
:105FF000062808DB08881922D201904205DD0888AE
:10600000104A904201D0072070474888062808DBD4
:1060100048881922D201904205DD4888094A9042F9
:1060200001D00720F0E70888064A904208D0488847
:10603000904205D008884A88904201DD0720E3E7B6
:106040000020E1E7FFFF0000F8B506460D461446C4
:106050002078801D1F2801D90C20F8BD3046FFF79D
:10606000C5FF0746002F01D03846F6E70521227804
:10607000501C2070A95412212278501C2070A95461
:1060800022785119308803F016FA217840182070D0
:1060900022785119708803F00EFA21784018207088
:1060A0000020DAE710B5044600BF03A29E21204677
:1060B000FEF738FF00BF10BD2E2E5C646174615F77
:1060C0007472616E736665722E63000030B587B0BE
:1060D0001C216846FEF777F8002000900520400458
:1060E0000190801002900321684601730021C18154
:1060F00001740B4805900B4806906846FFF7F2FACA
:10610000044600BF2546002D06D000BF06A2B521DB
:106110002846FEF707FF00BF00BF07B030BD0000F4
:1061200091770100A56001002E2E5C646174615FAF
:106130007472616E736665722E63000038B51F4815
:1061400000F074FC002829D11D48007800280AD0EE
:106150001C484069002820D000200090194841695F
:106160006846884719E018480078002802D1154889
:10617000456801E0134885680022294613480068F5
:10618000FEF7CAFF0446002C07D00E48806900289D
:1061900003D00C488169204688470AE009484069D5
:1061A000002806D0012000900648416968468847CB
:1061B00000BF00200249087038BD0000D220002036
:1061C000C42000206C250020CE200020DC200020F0
:1061D00010B514484068C105C90D002920D00A46F1
:1061E000103A50B200280DDA0E4B1C330407240F6E
:1061F000083CA408A4001B598407E40EE3401B06D6
:106200009B0F0BE0084B032424021B198408A400F5
:106210001B598407E40EE3401B069B0FD8B210BD48
:106220000420FCE700ED00E000E100E0F0B5FFB085
:10623000FFB083B004460D460121890201A8FDF795
:10624000C2FF01A9009163A002F0F5F82820005DCB
:10625000002867D12920005D8007800F032861D1C5
:1062600064A002F0E8F80121282001556648406941
:10627000401C07D00A07126991B2634A5069FDF7C2
:106280005FFF02E0012000074069801EC1B22520A7
:1062900001555D484069401C08D00122120712696F
:1062A00091B2594A5069FDF74BFF02E00120000707
:1062B0004069801EC1B226200155002127200155CA
:1062C000092252A12046FEF7A4FF082252A120462F
:1062D0001630FEF79EFF302221460098FEF799FF08
:1062E000FEF7E1F948484069401C08D00122120736
:1062F000126991B2444A5069FDF722FF02E0012081
:1063000000074069401EC7B20C2201A93846FFF7BA
:10631000AFFBFEF7CEF920461E3001F063FD01F021
:1063200089FD4EE02820005D00284AD02920005D2C
:106330000821084222D0284601F054FD25210A5D9B
:106340002621095D511AFA2251432722125D88182D
:106350000A21FDF70BFF86B22920005D20210842AB
:1063600001D1002E0AD02FA002F065F83120015D86
:10637000262001553220015D272001552EA002F074
:106380005AF8302221460098FEF743FFFEF78BF9BA
:106390001D484069401C08D001221207126991B2C1
:1063A000194A5069FDF7CCFE02E001200007406960
:1063B000401EC7B20C2201A93846FFF759FBFEF771
:1063C00078F923A002F037F800207FB07FB003B047
:1063D000F0BD000064657669636520636F6E666971
:1063E000672075706461746520626567696E3A0A3A
:1063F000000000004163746976652074686520645C
:1064000065766963650A000000100010573150522C
:106410004F4A45435400000050415353574F524494
:10642000000000000A4572726F72206F636375721C
:106430006564200A00000000557064617465207472
:1064400068652064657669636520696E666F0A0019
:1064500064657669636520636F6E66696720757031
:1064600064617465206F7665723A0A0070B5FFB09A
:10647000FFB090B034225DA16846FDF78BFE0EACF4
:106480000EAD67484069401C08D00122120712690E
:1064900091B2634A5069FDF753FE02E00120000704
:1064A0004069401EC6B20DAA0EA93046FFF7A6FAF3
:1064B00009225CA12046FDF7A5FE00281CD15CA0A6
:1064C00001F0B9FF0921284601F0A2FF0D2128465D
:1064D000093001F09DFF08212846163001F098FF91
:1064E000072128461E3001F093FF58A001F0A3FFBA
:1064F00000215D48017246E009225CA12046FDF7BB
:1065000081FE00281BD14AA001F095FF09212846F1
:1065100001F07EFF0D212846093001F079FF0821A6
:106520002846163001F074FF28461E3002F0E4FAC7
:1065300051A001F080FF01214B48017223E053A0DC
:1065400001F079FF002148480172FEF7ACF83448A9
:106550004069401C08D001221207126991B2304AEA
:106560005069FDF7EDFD02E0012000074069401E83
:10657000C6B20C2269463046FFF77AFAFEF799F860
:1065800047A001F058FF3848007A002828D00021A1
:1065900035484172092221462038FEF73AFE0D2285
:1065A0002146093130481738FEF733FE08222146CC
:1065B00016312D480A38FEF72CFE072221461E31DF
:1065C0002948801EFEF725FE2520015D26484171E1
:1065D0002620015D244881712720015D2248C17178
:1065E000214820387FB07FB010B070BD303050529D
:1065F0004F4A454354555345524E414D45616E6493
:10660000494450415353574F524453455454494DB4
:106610004553544F52414745494E464F00000000F4
:1066200000100010303050524F4A454354000000D3
:106630006465766963655F636F6E6669672072651E
:106640006164206F7665723A0A0000000A6465761C
:10665000696365206E6F7420616374697665206E6E
:106660006F77210A00000000D824002057315052D3
:106670004F4A4543540000000A646576696365200B
:10668000616374697665210A000000000A6465761A
:1066900069636520666972737420757365210A00E9
:1066A000666972737420626C655F666C6173685FA3
:1066B000706167655F7772697465206F76657220B7
:1066C0000A000000014614480078144A12789042EB
:1066D0001DD011480078401C0F4A107010460078F9
:1066E000022801D1002010700B48007880000C4A6D
:1066F000105808600B4A086812688018094A106030
:10670000104600680002000A106001207047002057
:10671000086000BFFAE70000B0200020B120002090
:10672000A8200020A4200020F0B50346002426E085
:10673000164E366824277E43154F3F68F019466889
:106740009E4203D94668F61A46601CE046689B1BC9
:10675000466834190026466006750C4E35680B4FA6
:10676000066A3E600669002E08D00E193602360A07
:1067700086600669C66016680662156000BF034839
:106780000068401CD4D100BFF0BD0000A020002054
:106790009420002002210B4A516000BF0A49096879
:1067A0000029FBD00749886000BF07490968002914
:1067B000FBD00021034A516000BF0349096800294A
:1067C000FBD0704700E5014000E4014001220B4B83
:1067D0005A6000BF0A4A1268002AFBD0016000BF5D
:1067E000074A1268002AFBD00022044B5A6000BFFF
:1067F000034A1268002AFBD07047000000E5014000
:1068000000E4014070B504460D4600E03DDF0D4850
:1068100000780028FAD101200B49486000BF0B48DE
:1068200000680028FBD0256000BF084800680028E9
:10683000FBD000200449486000BF044800680028DD
:10684000FBD070BDB820002000E5014000E401400D
:1068500010B5002823D0124B001F0022196803E056
:10686000814203D80A4649680029F9D1002A0AD092
:106870001368841A9C4204D10068181810601046EE
:1068800002E0506000E01860002907D002680B1A8F
:10689000934203D10B68D21802604968416010BD71
:1068A000F82000203EB500BF6846007801090901C4
:1068B000491C009168460078F02188431030009010
:1068C00000BF0D2216A168467CDF044600BF2546A6
:1068D000002D06D000BF16A243212846FEF722FB5A
:1068E00000BF00BF00200190029010216846818007
:1068F0002021C18000210181FF219131418101A826
:106900007ADF044600BF2546002D06D000BF08A24E
:106910004D212846FEF706FB00BF00BF3EBD00002C
:1069200057315F53544550535F5445535400000052
:106930002E2E5C646174615F7472616E7366657241
:106940002E630000F8B529480078002800D1F8BD72
:1069500027480068002801D1012000E000200546FA
:1069600024480068002801D1012000E000200646EC
:1069700000BF002D14D168464EDF0446052C01D11E
:1069800001250CE0002C06D000BF1BA26F21204681
:10699000FEF7C8FA03E0164900980968884700BF67
:1069A000002E1AD11F480088009069461E480068D2
:1069B00060DF0446052C01D101260DE0002C06D035
:1069C00000BF0DA286212046FEF7ACFA04E016486F
:1069D000006808490968884700BF002D02D0002ED2
:1069E00000D000E0C5E700BF00BFB0E7E020002016
:1069F000F4200020F02000202E2E5C536F7572636F
:106A0000655C73645F636F6D6D6F6E5C736F6674EE
:106A10006465766963655F68616E646C65722E6338
:106A200000000000EC200020E820002001464888FB
:106A3000064A1288904206DB4888044A52889042EF
:106A400001DC012070470020FCE70000C620002088
:106A50000B48008CC0B2012810D10948808C000777
:106A6000000F0BD10648806AF0210840402805D16C
:106A70000348C06A084201D1012070470020FCE7AA
:106A8000C00F00F01748008CC0B2012827D115486C
:106A9000808C0007000F22D11248806AF021084242
:106AA00005D11048C06A084201D1012070470D4845
:106AB000806AF0210840102805D10A48C06A0842BF
:106AC00001D10120F2E70748806AF0210840302810
:106AD00005D10448C06A084201D10120E6E7002040
:106AE000E4E70000C00F00F0F8B504460D460026AC
:106AF000002760881549884206DAA088884203DBAF
:106B000001206070012709E060881049884205DB98
:106B1000A088884202DA02206070012720780128CC
:106B20000AD16078022807D1E88920810120A0726B
:106B300007A001F080FC01E00020A072A088608026
:106B4000002F01D0607820703046F8BDDC050000D1
:106B500069732073746570200A000000FEB52B482D
:106B6000006801902A48007800903FE00098C0003B
:106B7000284909684418257834E01820684361687A
:106B80000F18681CC5B2A078A84200D1002538783B
:106B9000022802D0032822D10EE02421786848433D
:106BA0001D4909684618307D002804D0786802F035
:106BB0009DF80020307513E00CE014490968242288
:106BC0005143154A12688818002101750F4A016A5D
:106BD000116000BF0D480068401CEED100E000BF0E
:106BE00000BF00BF6078A842C7D100BF0098411E17
:106BF000C9B200910028B9D10448016801988142C6
:106C000001D00120FEBD0020FCE70000A0200020F4
:106C1000992000209C20002094200020FEB50746EB
:106C20003F48006802903F480078019069E0019871
:106C3000C0003D49096845185CE0781C07D03E4615
:106C400024207043394909684418276A23E02978C9
:106C5000182359436A6850182978491C29702978E3
:106C6000AA78914201D100212970466824217143FC
:106C70002E4A12688C180178012902D1217D002941
:106C800000D037E08168A160C168E16001692161DD
:106C90004169E16100BF2649A0680968401A000205
:106CA000000A2449884208D22149A068096801F0F5
:106CB0001DFFE1684018606011E01D48A168006890
:106CC00001F014FF0090E1680098814204D9E16866
:106CD0000098081A606001E00020606000BF00209A
:106CE000A060E06001202075801E2062304601F027
:106CF00091FF00BF781CA0D12878697888429CD188
:106D000000BF0198411EC9B2019100288FD10448EB
:106D100001680298814201D00120FEBD0020FCE7FD
:106D2000A0200020992000209C20002094200020FA
:106D3000A4200020FFFF7F000020144908701449A0
:106D4000087014481449886002F0A2FB00BF13A029
:106D500001F071FB00BF02F0B5F8FEF77FFF00F015
:106D6000D9FF16490C4801F0E1FBFFF77FFB1449FE
:106D7000086001F0AFF9084800F0A0F811A001F098
:106D80005AFB00BF00F05AFEFCE700002B20002059
:106D90002C20002068240020A0240020200A0D536D
:106DA000746172743A207468697320697320707218
:106DB0006F6A656374205731200A00007424002034
:106DC000082000200A20456E643A20746869732008
:106DD00069732070726F6A65637420573120200ACE
:106DE00000000000F0B50B30C108C900144F0026A8
:106DF000144A0FE003688B420BD38B4205D95C1A0F
:106E0000431845685D601C6000E04368136002C081
:106E100004E0021D10680028ECD13046002803D1A0
:106E20003868002801D00020F0BD064A06481060EE
:106E3000064A121AD208D20044C001203860D7E7AF
:106E4000FC200020F8200020FC280020F830002042
:106E5000F8B505460E4614462879801CC7B220783E
:106E6000801CC0191F2801DD0C20F8BD781CC1B2A0
:106E70002278501C2070B154FF212278501C2070C1
:106E8000B15422789119288802F015FB2178401816
:106E90002070A88800280EDDA868002801D10720EE
:106EA000E3E7AA8823789819A968FDF773F9207891
:106EB0002979401820700020D7E7000010B504465B
:106EC0000848007A002805D007A001F0B4FA012094
:106ED000606110BD0BA001F0AEFA0220606100BF3E
:106EE000F7E70000D82400200A20676F20746F2085
:106EF000535445505F434F554E5445525F4D4F4498
:106F000045200A000A20676F20746F2044415441D5
:106F10005F5452414E5346455245525F4D4F444592
:106F2000200A0000F7B584B004460F46069806789C
:106F3000B01C1F2803DC6078801C1F2802DD0C2099
:106F400007B0F0BD1F20801B801E85B20295B11CCA
:106F5000781802A97DDF03900398002801D00398D8
:106F6000EEE72078022808D168460089A84204DCB0
:106F700009200190684605890BE00820019060789F
:106F8000002804D06078A84201DC657801E06846FA
:106F90000589681CC2B23046711CCEB23A543046E4
:106FA000721CD6B20199395406980178A81C0818A9
:106FB000C1B2069801700020C2E710B58A0005230F
:106FC0001B07072424021B1984001A5110BD10B599
:106FD0008A0005231B07072424021B1984001A5169
:106FE00010BD01210522120707231B02D2188300BE
:106FF000D150704730B513048C0023430524240777
:1070000007252D0264198500635130BD012181409F
:10701000014AD16070470000000500500121814005
:10702000014A91607047000000050050F8B5044621
:107030000026208814283DD006DC10280BD011280B
:1070400016D0132859D121E017282DD0192845D062
:10705000522852D121E030A001F0EDF90820FFF7CD
:10706000DDFF0820FFF7D2FFA0882F49088045E008
:107070002EA001F0E0F90120314908700820FFF747
:10708000C5FF0020C0432849088037E02D4A002171
:10709000254800887FDF064630E00022114622485E
:1070A0000088A9DF064629E03222A11D2648FDF707
:1070B00071F823E0244DAD1D2988E089814206D175
:1070C000002229461848008881DF064605E0002294
:1070D00011461548008881DF06460FE0A079002898
:1070E0000AD10820FFF792FF032211460A20FFF77A
:1070F00081FF01201249087000E000BF00BF00BFFF
:107100003746002F06D000BF10A213493846FDF7BE
:1071100009FF00BF00BFF8BD636F6E6E65637465E5
:1071200064206F6B0A000000042000206469736310
:107130006F6E6E6563746564206F6B0A00000000FB
:107140002B20002010200020002400202E2E5C6D1B
:1071500061696E2E63000000FD02000030B585B04D
:1071600005460322D9A12846FDF74CF8002845D151
:10717000D74800682030007A002824D00D22D44857
:1071800001680931E81CFDF73DF800280DD1D04811
:1071900000682030407A08210843CD490968203131
:1071A0004872CCA001F047F98DE1C9480068203051
:1071B000407A08218843C649096820314872CFA027
:1071C00001F039F97FE10D22E91CC148006809305E
:1071D000FEF71FF8BE4800682030407A01210843BE
:1071E000BB490968203148720D21B948006809304F
:1071F00001F00EF9C8A001F01EF964E10922D0A146
:107200002846FCF7FFFF002852D1B1480068203023
:10721000007A002822D0AE4800682030407A082149
:10722000084210D0072229460931C848FDF7F1FF6E
:107230000D21C7A0FEF758FD0120C9490870C9A05B
:1072400001F0F9F83FE10C21D0A0FEF74DFD002040
:10725000C3490870D0A001F0EEF834E19C48006802
:107260002030407AC007C00F1ED0072229460931BE
:10727000974800681E30FDF7CCFF95480068203025
:10728000407A0221084392490968203148729048A7
:1072900000681E3001F030FC0C21CAA0FEF724FD6E
:1072A000CBA001F0C8F80EE1CFA001F0C4F80AE1CC
:1072B0000B22D9A12846FCF7A5FF002853D1A848E6
:1072C000007800284BD00722814801681E316846AB
:1072D000FDF79FFF32206946C871012088727C4902
:1072E000096820314A797A49096820318979511A27
:1072F000FA225143764A12682032D27988180A213C
:10730000FCF734FF84B22046E117090E0918091270
:107310000902611ACAB269460A72E117090E09190F
:1073200009040A0E69464A720B216846FEF7DCFC26
:1073300067480068203081796548006820304174D2
:10734000634800682030C17961480068203081744A
:10735000B4A001F070F8684601F0CEFBB3E0BFA026
:1073600001F069F8AFE00C22C4A12846FCF74AFFFF
:10737000002806D10120C54908700020C4490870C2
:10738000A1E00922C3A12846FCF73CFF002806D152
:107390000120BF4908700020BC49087093E00A2210
:1073A000BFA12846FCF72EFF00280AD16C480078C0
:1073B0000028D3D0B64800780028CFD000F08AFE4D
:1073C00081E00822B9A12846FCF71CFF00280AD159
:1073D00063480078002876D0AD480078002872D045
:1073E00000F0B4FE6FE00D22B3A12846FCF70AFFBF
:1073F000002814D15A48007800280CD0A3480078FF
:10740000002808D0B0A001F016F80121304800682B
:10741000FDF75AF957E091A001F00DF853E00D2265
:10742000B2A12846FCF7EEFE002808D1B1A001F079
:1074300002F8002126480068FDF746F943E00E22D5
:10744000B3A12846FCF7DEFE00280FD1B4A000F05F
:10745000F2FF1F4800682030407A102108431C4981
:1074600009682031487200F0E5FC2CE00922B1A146
:107470002846FCF7C7FE002825D00822B0A12846E0
:10748000FCF7C0FE00281ED00B22B0A12846FCF756
:10749000B9FE002817D00A22AFA12846FCF7B2FE99
:1074A000002810D00D22AFA12846FCF7ABFE002823
:1074B00009D00522AFA12846FCF7A4FE002802D07F
:1074C000AEA000F0B8FF05B030BD000049443A005E
:1074D000082000200A416374697665642C204368A3
:1074E00065636B204944206F6B2C207468656E20A7
:1074F0005345542D54494D450A0000000A41637418
:10750000697665642C20436865636B204944206676
:1075100061696C2121210A000A556E6163697476E4
:1075200065642C20536574204944206F6B2C2074B3
:1075300068656E205345542D54494D450A0000009E
:107540005345542D54494D453A000000A0240020D5
:1075500041434B2D49442D41475245450000000011
:107560002C200020416374697665642C20534554B7
:107570002D54494D45206F6B2C207468656E204456
:1075800045564943452D494E464F0A0041434B2D30
:1075900049442D44454E5400416374697665642C1A
:1075A000205345542D54494D45206661696C2C206B
:1075B000666972737420636865636B2049443A0A94
:1075C0000000000041434B2D49442D494E495400D1
:1075D000556E616374697665642C205345542D544F
:1075E000494D45206F6B0A00556E6163697476657D
:1075F000642C205345542D54494D45206661696CD7
:107600002C205345542D49442066697273742070B0
:107610006C65617365210A004445564943452D490F
:107620004E464F005065726D697373696F6E2061CD
:10763000677265652C204445564943452D494E46A1
:107640004F206F6B2C207468656E205452414E534E
:107650004645522D44415441200A00000A506572AB
:107660006D697373696F6E2064656E792C204E6F3F
:1076700020616374696F6E0A000000004E4F4E5225
:1076800045414C2D54494D45000000002D2000205F
:107690002E2000205245414C2D54494D45000000FC
:1076A000444154412D424547494E00004441544114
:1076B0002D454E44000000005452414E5346455261
:1076C0002D444154410000005452414E534645520E
:1076D0002D44415441202C6F6E65207061636B61B5
:1076E00067652073746172740A0000004552524F3E
:1076F000520000004552524F52202C72657472792C
:10770000206C617374207061636B616765200A008F
:107710005452414E534645522D4F5645520000009B
:107720005452414E534645522D4F564552206F6B91
:107730000A00000073686F775F74696D6500000070
:1077400073687574646F776E0000000074696D650E
:10775000725F73746172740074696D65725F7374C3
:107760006F7000007472616E736665725F7465732A
:10777000740000007465737431000000636F6D6DF8
:10778000616E64206661696C656421210A000000F5
:1077900070B505462878002810D13B21084800889C
:1077A00076DF044600BF2646002E06D000BF05A2A5
:1077B00094213046FDF7B6FB00BF00BF70BD00004E
:1077C0003C2000202E2E5C646174615F7472616ED7
:1077D000736665722E63000010B504460822A11D71
:1077E0000248FCF7D7FCFEF7A9FC10BDD220002010
:1077F0008A88828270478A884282704710B5044620
:10780000A08809490880082221460E310748FCF764
:10781000C1FC0020064908700648C089002801D133
:10782000FEF78CFC10BD0000D0200020D2200020EC
:10783000CE2000206C2500200022D2438282704797
:107840000022D2434282704770B505460020C043F3
:107850000A49088000200A4908700A480068FDF7B4
:1078600091FC0446002C07D007488069002803D00B
:10787000054881692046884770BD0000D02000205F
:10788000CE200020DC2000206C25002070B50446AE
:107890000E46B51D2988208A81420BD1288B0228EB
:1078A00008D1688B012802D10121A17501E00021D6
:1078B000A1750CE02888A188884208D1A069002819
:1078C00005D02A8B29461A312046A369984770BDF6
:1078D000F8B504460E46207D002820D0B51D298825
:1078E000608981421AD1288B022817D1206800288C
:1078F00014D000BF00BFA97EEA7E120211430846E1
:10790000C107C90F002902D00020009001E001202A
:107910000090694620462268904700BF00BFF8BD2E
:1079200070B50546AC1D20881249C989884220D10E
:10793000208B02281DD100BF00BFA17EE27E120273
:1079400011430846C107C90F002902D0FEF7F6FB14
:107950000FE009480068FDF715FC0646002E07D029
:1079600004488069002803D002488169304688476E
:1079700000BF70BD6C250020DC200020F8B5054656
:107980000E46002400BF002E01D0012000E00020A0
:107990000746002F05D100BF1EA24B21FDF7C2FAFA
:1079A00000BF00BF00BF002D01D0012000E000207B
:1079B0000746002F05D100BF16A24C21FDF7B2FAF1
:1079C00000BF00BF32782046611CCCB22A5429196E
:1079D000708801F067FD0019C4B22919B08801F060
:1079E00061FD0019C4B22919F08801F05BFD00198E
:1079F000C4B200BF072C01D1012000E000200746DF
:107A0000002F05D100BF03A25421FDF78BFA00BF60
:107A100000BFF8BD2E2E5C536F757263655C626C9F
:107A2000655C626C655F73657276696365735C62E1
:107A30006C655F6469732E630000000070B50A48CE
:107A40000078002801D001F01DF83DDF044600BF9A
:107A50002546002D06D000BF04A207492846FDF7A1
:107A600061FA00BF00BF70BD2B2000202E2E5C6D80
:107A700061696E2E6300000093020000F8B50F25C7
:107A8000254800781C2148432349091D4418E06813
:107A900000902078042810D18006006981B20098F7
:107AA000FCF74EFBA1694618304650DF0546002D15
:107AB00002D1A069401CA06126E02078022823D1D1
:107AC0002769A0693F18A1696069411800980818E2
:107AD0000090A1696068461A01208002864205D2A2
:107AE000B2083946009851DF054605E0FF22013211
:107AF0003946009851DF0546002D04D10121890245
:107B0000A0694018A06100BF002D02D101200249E8
:107B100088702846F8BD00008825002070B505460D
:107B2000002617488078012828D100201449887041
:107B3000022D02D0032D1ED119E0114800781C211E
:107B400048430F49091D44182078042803D161686F
:107B5000A069884202D33046FDF7F2F9FEF7B2F988
:107B60000646002E02D03046FDF7EAF904E00D206B
:107B7000FDF7E6F900E000BF00BF00BF70BD0000E8
:107B80008825002070B50446002504480470202193
:107B90000F2000F005F80546284670BD382000206B
:107BA00038B504460D462407240F200169460870A5
:107BB0004D70012302220248007801F065FB38BDB8
:107BC00038200020F7B50C46154600266846007898
:107BD0000107090F0091684600780007010E009127
:107BE0000023012269460A48007801F04DFB002875
:107BF0000CD00749097801221143084613462A464A
:107C0000214601F041FB002800D001263046FEBD90
:107C100038200020F7B582B007461446601C00905B
:107C20000098FFF7DFF8054600262F7000BF04E03C
:107C30000398815D701C2954C6B2601C8642F7DB34
:107C4000C2B2012329460548007801F01DFB0190CE
:107C50002846FEF7FDFD019805B0F0BD3820002054
:107C600001484068704700000015014010B5044607
:107C70000348846003211120FCF704FC10BD0000C0
:107C80000015014010B50120000409494860084969
:107C9000403948601120FCF7D7FB1120FCF7DEFBD0
:107CA0000120044908602F20FCF714FA10BD0000E1
:107CB000401301400010014010B511200121814006
:107CC000084A116000BF0120000407498860064986
:107CD000403988600120054948602F20FCF7FAF9F7
:107CE00010BD000080E100E04013014000100140A1
:107CF00070B5044600252646072231460020FFF7CE
:107D000061FF002804D0204600F0F6FE284670BD32
:107D10000120FCE77CB50025002401F0FFF903E019
:107D2000641C12A000F087FB6420FFF72BFF0028E3
:107D300001D10A2CF4DB0A2C01DB28467CBD684605
:107D4000FFF7D6FF684680791E2807DC6846407931
:107D50000C2803DC6846C078072804DD00F01AF818
:107D600007A000F068FB0120E8E70000726574726C
:107D70007920696E697420727463210A0000000022
:107D800074696D655F72657365742077656C6C0AE4
:107D9000000000001CB506A000F04DFB0FA103C9B8
:107DA00001910090072269460020FFF733FF1CBDB8
:107DB0005265736574205254432074696D65207454
:107DC0006F207B323030302D30312D303120362055
:107DD00030303A30303A30307D200A000000000662
:107DE0000101000070B586B005460CA000F023FB31
:107DF0002E46002409E0325D0CA101A8FCF716FD17
:107E000001A800F018FB601CC4B2072CF3DB0722AA
:107E100031460020FFF7FEFE06B070BD53657420AA
:107E20005254432074696D65200A00002530327871
:107E3000200000001CB507A000F0FDFA6C460722E8
:107E400021460020FFF7BEFE002802D0684600F061
:107E500053FE1CBD53686F77205254432074696DE4
:107E600065200A0030B58FB004460D46002007900B
:107E700000BF6846007F01090901491C6846017777
:107E8000007FF021884310306946087700BF00BFAB
:107E90006846407F01090901491C68464177407FD7
:107EA000F021884310306946487700BF6846807FDC
:107EB00006218843811C684681771C2108A8FCF7AD
:107EC00082F908A8007810218843411808A8017099
:107ED000002009900B900C9007A80D9000200E90A8
:107EE000217868468171032181800020009000BFC5
:107EF0006846007801090901491C6846017000784C
:107F0000F021884310306946087000BF00BF684602
:107F1000407801090901491C684641704078F02108
:107F2000884310306946487000BF68468078062153
:107F30008843811C68468170807808218843014607
:107F400068468170807810218843014668468170B8
:107F5000807841084900491C68468170142102A8B4
:107F6000FCF731F901A802906846039001210182D3
:107F70000021418214218182608823460C3302AAA9
:107F800008A9A2DF0FB030BD1E20104908800846A6
:107F9000807840084000401C8870084680780221A4
:107FA00088430A498870084680781C2188430C3031
:107FB00006498870084680782021884303498870E4
:107FC0000720C8701020087170470000442000206E
:107FD00010B504461048C089401C0F49C88100BF35
:107FE00000BF00F021F80D480078002810D10C499E
:107FF000094800F00DFB08484069022808D10948EB
:108000000078002804D000F0D1FF00200549087056
:10801000FFF714FD10BD0000A02400202E2000203A
:10802000742400200C20002070B5012022494860F3
:108030008120C000214948600020214908600120BA
:108040001E49086000210420FEF7B7FF072027DF44
:10805000044600BF2546002D06D000BF19A27E2190
:108060002846FCF75FFF00BF00BF0321072028DF81
:10807000044600BF2546002D06D000BF11A2812175
:108080002846FCF74FFF00BF00BF072023DF044650
:1080900000BF2546002D06D000BF0AA28421284635
:1080A000FCF740FF00BF00BF002005490860012029
:1080B0000749086070BD0000007300400075004073
:1080C000007100402E2E5C73656E736F722E63001C
:1080D0000070004070B50EA000F0ADF9002212490A
:1080E00012480068FDF718F8044600BF2546002D29
:1080F00006D000BF0EA211492846FCF713FF00BFAF
:1081000000BF002C02D10EA000F095F970BD000058
:1081100073656E736F722074696D6572732073740A
:108120006172740A00000000D703000018200020CC
:108130002E2E5C6D61696E2E630000000702000048
:108140006E6F206572726F720A00000070B50DA02C
:1081500000F071F911480068FDF714F8044600BFFB
:108160002546002D07D000BF0DA28D21890028468D
:10817000FCF7D8FE00BF00BF002C02D10BA000F01E
:108180005AF970BD2073656E736F722074696D65E6
:1081900072732073746F700A0000000018200020B2
:1081A0002E2E5C6D61696E2E630000006E6F20657F
:1081B00072726F720A000000FEB507460E46144642
:1081C000386B002801D10720FEBD0020019032E06D
:1081D000396B0C22019850430D182879801CC0B2CD
:1081E00000900098401CC1B22278501C2070B154FD
:1081F00016212278501C2070B154227891192888B9
:1082000001F059F9217840182070A88800280EDD67
:10821000A868002801D10720D6E7AA8823789819F2
:10822000A968FBF7B7FF20782979401820700198DA
:10823000401CC0B201903420C15D01988142C7DC6E
:108240000020C1E730B595B0142110A8FBF7BBFFA3
:1082500000BF10A8407B01090901491C10A8417307
:10826000407BF0218843103010A9487300BF00BF45
:1082700010A8807B00090001401C887310A8807B37
:10828000F0218843103010A9887300BF00BF10A8E8
:10829000C07B00090001C87310A8C07BF02188438F
:1082A00010A9C87300BF00BF10A8007C0109090114
:1082B000491C10A80174007CF0218843103010A9DB
:1082C000087400BF00201090012110A80171002047
:1082D0001290642110A8017310A92448FDF7C0F979
:1082E000044600BF2546002D07D000BF20A2FF2175
:1082F000ED312846FCF716FE00BF00BF402168465E
:10830000FBF761FF1DA16846FDF76BFC00BF08A8E5
:10831000007F01090901491C08A80177007FF021AD
:108320008843103008A9087700BF00BF0FA8407825
:10833000000900010FA948700FA84078F021884378
:108340000FA9487000BF6846FDF746FA044600BF13
:108350002546002D07D000BF05A2FF21F831284691
:10836000FCF7E0FD00BF00BF15B030BD3424002095
:108370002E2E5C6D61696E2E6300000057314657EA
:1083800000000000F8B507460C4615461E4620467C
:10839000FEF727FE00213046FEF719FE1048C460A4
:1083A0004661069800280DD03846FEF71AFE0021D7
:1083B0002846FEF70CFE0A4805618760012008493F
:1083C0004031C8620748064948620420086001201D
:1083D000054988600860002004498860F8BD0000F5
:1083E0000025004000509D0000200040002100407A
:1083F0000549C86100BF0549C9690129FBD10021B0
:10840000024AD16170470000002500400021004071
:1084100070B503460D4600242046641C1E5C05E032
:108420003046FFF7E5FF2046641C1E5C002E01D09D
:10843000AC42F5D970BD30B50346002528466D1C09
:108440001C5C05E02046FFF7D3FF28466D1C1C5C32
:10845000002CF7D130BD70B506460C4615462946AE
:108460002046FCF7E3FE70BD0146002901D10E2035
:108470007047024801600020FAE70000F020002069
:10848000FFB581B00C4616461F46002C02D10720CE
:1084900005B0F0BD20468107890F01D1012100E020
:1084A0000021002901D10720F2E70A4804600A48A8
:1084B00006800A4807600A49019810DF0546002D2A
:1084C00001D02846E4E7012006490870162023DF82
:1084D000DEE70000E8200020EC200020E42000205F
:1084E00057840100E020002010B511DF0446002C65
:1084F00001D0012000E0002001490870204610BD95
:10850000E02000200146002901D10E2070470248DA
:1085100001600020FAE70000F4200020014688886E
:10852000002801DD072070470020FCE770B50446F5
:108530000D46002609212820415509480560A81C40
:10854000FFF7D6FB0020A1688880A1684880A16859
:108550000870A1684870E08120732082304670BDA9
:108560003420002010B504461548007B00280FD1A8
:108570001348008A401C124908820846008A3C2899
:1085800019DB10A0FFF757FF01201B49087012E00C
:108590000B48007B0A280BDB09484069012807D1FA
:1085A00016A0FFF748FF02200549486100F0FEFCD5
:1085B00000200349088200200149087310BD000013
:1085C000A024002069742077696C6C20736875742E
:1085D000646F776E2073696E6365206E6F742072AE
:1085E000756E6E696E6720696E2033206D696E75D9
:1085F0007465730A000000002B2000204C50434F8C
:108600004D50207472616E736665720A000000003E
:10861000F0B591B004460D460020109002900190F4
:1086200001200090484800682030067AE0896421E3
:10863000FBF79CFD00293AD1E089002837D043A000
:10864000FFF7F9FE207B4049096888553E480068DD
:10865000805D02900298002800D1009002980228C4
:1086600008DC44480078052804DB43A0FFF7E3FE5C
:1086700002206061009800280CD1208A401C2082D2
:10868000208A3C2808DB41A0FFF7D5FE01204C4999
:10869000087001E000202082701CC6B22A480068E1
:1086A0002030067233490298087000202073272E6C
:1086B0000AD144A0FFF7BFFE012001900020E08115
:1086C00009212820415509260198002803D13C485A
:1086D0000078002835D041A0FFF7ADFE00270BE061
:1086E00019480068C25D42A103A8FCF79FF803A8DF
:1086F000FFF7A1FE781CC7B2282FF1DB1CA0FFF703
:108700009AFE482028704521272041553AA0FFF7BE
:1087100092FE28210C48006800F088F83DA0FFF781
:108720008AFEA81CFFF7E4FA074800688078FF2853
:1087300005DA054800684078401C687001E00020B8
:108740006870109811B0F0BD342000200A204576E2
:108750006572792033207365636F6E64732C2072A9
:1087600065636F72642073746570206F6E6365203B
:108770000A000000302000200A2041444320747287
:10878000616E73666572200A0000000069742077CC
:10879000696C6C2073687574646F776E2073696E92
:1087A0006365206E6F742072756E6E696E672069E6
:1087B0006E2033206D696E757465730A00000000C9
:1087C0002B200020616E6F74686572203930207331
:1087D00065636F6E6473200A00000000777269742D
:1087E0006520746F20666C617368200A00000000C9
:1087F00025303278200000000A0D64697361626CD4
:1088000065206265666F726520666C617368200A18
:1088100000000000656E61626C65206166746572BF
:1088200020666C617368200A0A000000F0B5FFB092
:10883000FFB091B005460E460021FFA8C1630EAF00
:10884000324629463846FCF7E4FC3948C07900280E
:108850000DD138A0FFF7EFFDFBF725FF34498879EC
:108860000A220EA9FDF704F9FBF723FF0FE036A05B
:10887000FFF7E1FDFBF717FF2D48C17982790A2345
:1088800000920EAA0098FBF7EDFEFBF712FF2848B6
:10889000C0790A30C1B22648C171C079FA2810DB0C
:1088A00023488079401EC1B2214881718179407985
:1088B0006438814202DC1E484179817100211C48E4
:1088C000C1711B48C27983790EA91846FBF77CFE5B
:1088D00022A0FFF7B0FD1648C379827924A101A830
:1088E000FBF7A4FF01A8FFF7A6FD002411E0282153
:1088F0002046FBF73BFC002902D125A0FFF79BFD9A
:108900003A5D24A101A8FBF791FF01A8FFF793FDB1
:10891000641C0748C0798000A042E8DC1FA0FFF774
:108920008AFDFFA8C06B7FB07FB011B0F0BD000022
:10893000D82400202041206E657720666C61736822
:1089400020706167650A000020436F6E74696E7560
:108950006520666C6173680A0000000062656769E3
:108960006E207072696E7420666C6173680A000014
:1089700070616765206E6F773A25303278202C77EA
:108980006F7264206F66667365743A2530327820A2
:108990000A00000025303278200000000A656E646D
:1089A000207072696E7420666C6173680A00000042
:1089B00010B504462046FFF7B1F810BD70B5044667
:1089C0000D4600BF002D01D0012000E0002006462A
:1089D000002E05D100BF21A23321FCF7A3FA00BF6E
:1089E00000BF00BF002C01D0012000E0002006469F
:1089F000002E05D100BF19A23421FCF793FA00BF65
:108A000000BF2878207029882879FF231B0219408D
:108A100000200206080A1043607028791B022968AA
:108A2000194000200204080C1043A07029791B0291
:108A30002868184000210902000E0843E0702879D8
:108A40002071287A6071190CA8680840000AA0718A
:108A50000902A8680840000CE07170BD2E2E5C531E
:108A60006F757263655C626C655C626C655F736593
:108A70007276696365735C626C655F6469732E63AB
:108A80000000000070B50D490D480068FDF7CEFBF1
:108A9000FDF7E4F8FBF7AEFC0AA0FFF7CCFC31DFF2
:108AA000044600BF2546002D06D000BF0BA20E498C
:108AB0002846FCF737FA00BF00BF70BDA024002095
:108AC00008200020676F696E6720746F20737973C8
:108AD00074656D206F666621200A00002E2E5C6D85
:108AE00061696E2E63000000860200000246501A83
:108AF0000002000A7047000030B58DB004462546DC
:108B000028786978AA78EB7801930292039104900F
:108B1000287900906B79AA7904A105A8FBF786FE55
:108B200005A8FFF788FC0DB030BD000032302530BD
:108B300032782D253032782D25303278202530328C
:108B40007820253032783A253032783A253032781C
:108B50000A00000070B504460D480068002813D0D4
:108B60000B4AE169A06912689047054600BF2E468E
:108B7000002E07D000BF07A2FF2155313046FCF779
:108B8000D1F900BF00BF02E0A169E069884770BD6C
:108B9000B42000202E2E5C536F757263655C61708B
:108BA000705F636F6D6D6F6E5C6170705F74696D27
:108BB00065722E6300000000FEB50020C0430190E6
:108BC0000F4804680F4807686846FDF77BFD0546B7
:108BD000FDF7C4FF0646002D05D001AA21460098E6
:108BE000FDF7A2FD01260198FEF718F8002800D035
:108BF0000126002E02D03846FDF7B2F9FEBD000076
:108C0000A4200020A020002010B51420FBF730FC89
:108C100010BD0000F0B5024624205043314B1B68C4
:108C2000C11831480068401C02D12F48026057E04B
:108C30002D484B680068242460432A4C246800199E
:108C40004068834217D82848006824235843254B9E
:108C50001B68C01840684B68C31A23480068242466
:108C60006043204C2468001943601F480068086274
:108C70001D48026034E04B681B4D2C6828680DE0ED
:108C800024254543174E3668AD196D685B1B0446B5
:108C900024254543134E3668AD19286A451C07D074
:108CA000242545430F4E3668AD196D689D42E7D3C4
:108CB000451C0CD0242545430A4E3668AD196D6815
:108CC000EE1A24254543074F3F68ED196E604B604F
:108CD000086224256543034E3668AD192A6200BF39
:108CE000F0BD000094200020A020002070B50246B6
:108CF000244C2168084609E0904200D108E0014672
:108D000024244443204D2D686419206A441CF3D167
:108D100000BF441C00D170BD814209D1194C2468A8
:108D200024256C43184D2D686419246A154D2C6058
:108D300024244443144D2D68641963682424444357
:108D4000114D2D686419256A24244C430E4E366853
:108D5000A419256224244C430B4D2D686419206A04
:108D6000441C0CD024244443074D2D6864196468C6
:108D7000E51824244443044E3668A419656000BFF6
:108D8000C9E70000A020002094200020FFB581B09A
:108D900005460E461746E900104A126888186946CB
:108DA00000F01BFC0446002C02D1042005B0F0BDED
:108DB000012020706660FEF753FFA060E760049812
:108DC00020610A986061E900044A126888180099D5
:108DD00000F019FCFFF718FF0020E7E79C200020B7
:108DE000F8B504460E46E1000C4A12688818694638
:108DF00000F0F3FB0546002D01D10420F8BD022050
:108E000028706E60E100054A12688818009900F029
:108E1000FAFBFFF7F9FE0020F0E700009C2000209D
:108E2000F8B51F480068401C39D00027FEF718FF2E
:108E300004461C4801682046FFF758FE06461848BD
:108E4000056811E0242068431749096844186068E0
:108E5000B04200D90AE06068361A6068C719256A0E
:108E60002046FFF777FE00BF681CEBD100BF0F481C
:108E700000780F490978884209D10D480078401CD4
:108E8000C0B20B490870022801D1002008700848C0
:108E90000078800007490F50FFF7B6FE00BFF8BD0D
:108EA000A0200020A420002094200020B02000203A
:108EB000B1200020A820002010B51120FBF7D8FA1F
:108EC00010BD0000F8B500BF0020274B062204218A
:108ED0000090FCF7A9F8054600BF2E46002E07D0EB
:108EE00000BF22A2FF216B313046FCF71BF800BF08
:108EF00000BF00BF204A01212048FCF75BF8044670
:108F000000BF2546002D07D000BF18A2FF217131F8
:108F10002846FCF707F800BF00BF194A012119488D
:108F2000FCF748F8044600BF2546002D07D000BFD7
:108F30000EA2FF2176312846FBF7F4FF00BF00BFE9
:108F4000114A01211148FCF735F8044600BF2546B7
:108F5000002D07D000BF05A2FF217B312846FBF77B
:108F6000E1FF00BF00BFF8BD002100202E2E5C6D88
:108F700061696E2E63000000D17F0100182000207F
:108F8000B15401001C200020658501002020002034
:108F900010B50124FDF786FC00F026F8FBF754FF1E
:108FA000FDF794F8FEF7F0FF204610BD10B506A0BF
:108FB000FFF741FAFFF746F9FFF7C8F8FFF7E8FFB8
:108FC00000F03AF810BD00000A20676F20746F208F
:108FD000444154415F5452414E5346455245525FBD
:108FE0004D4F4445200A000070B50B480021016038
:108FF0000A48094908600A48FCF778FD044600BFA2
:109000002546002D06D000BF06A264212846FBF7A6
:1090100089FF00BF00BF70BD402000206D9401009B
:109020004C2400202E2E5C646174615F7472616E4A
:10903000736665722E63000010B50124FBF746FFCE
:10904000204610BDF8B53248056800203049086058
:10905000080507210902401886692E4805210907DD
:10906000072212028918886105200007114640185E
:10907000406900902748052109078918486100BF09
:1090800020202549886000BF00BF4020886000BFC5
:109090000420FBF72FF8204800698006C00F06D097
:1090A0001D4800694006C00F01D001241FE00024C4
:1090B000122716E000BF40201749C86000BF0420F7
:1090C000FBF718F800BF40201349886000BF042058
:1090D000FBF710F8104800698006C00F01D001248A
:1090E00003E038467F1E0028E4D100BF00BF052002
:1090F0000007072109024018866105210907072298
:109100001202891800984861014805602046F8BDA0
:10911000004500400D0600000005005010B5002479
:109120001A480521090707221202891888610521BA
:10913000090789184861002015498860C861062020
:10914000144988600520C8603320C0044862104A72
:10915000E43A0F493831002044DF0446002C04D0A3
:109160000DA1FF201230FCF761F8012043DF044617
:10917000002C04D008A1FF201530FCF757F805207B
:1091800004490860FFF75EFF10BD00000C060000F8
:1091900000410040004500402E2E5C7477695F68F6
:1091A000775F6D61737465725F53445F345F342E13
:1091B00063000000F8B505460C4617462E4E002CFD
:1091C00001D10020F8BD012C04D12C4A2C490020EB
:1091D00044DF04E0294A08322949002044DF012005
:1091E00042DF00202649383988600120234914399C
:1091F000086031E000BF224838388068002802D17A
:10920000701E0600F7D100201D4938398860002EF5
:109210000ED14860012019491439486100BF18482F
:10922000383840680028FAD0012043DF0020C9E721
:109230001448806928706D1C601EC0B20446012865
:1092400003D10E4A0E49002044DF002C00D104E077
:1092500001200A4914390862CCE700BF0020084900
:109260003839486000BF0648383840680028FAD0CE
:10927000012043DF0120A5E7204E000014400040FC
:109280003841004000450040F8B504460E461546FA
:109290001F4600200090002D16DDFFF7D3FE0028AA
:1092A00012D0601009498860E007C00F06D03A4626
:1092B00029463046FFF77EFF009005E03A462946F2
:1092C000304600F005F800900098F8BD8045004059
:1092D00030B50346204C002901D1002030BD18785C
:1092E0001E4DE8615B1C01201D4DA86022E000BFFF
:1092F0001C48C069002802D1601E0400F8D1002C6F
:109300000CD10020174D68600120154D686100BF29
:10931000144840680028FBD00020DFE70020114DF2
:10932000E861481EC0B2010000D104E018780B4D7E
:10933000E8615B1CDBE700BF002A0AD00020094D72
:1093400068600120064D686100BF0648406800283B
:10935000FBD00120C2E70000204E00000045004085
:10936000004000400041004030B58FB004460D463B
:109370001C2108A8FAF727FF08A8007808218843CD
:10938000411808A80170002009900B900C900D90D6
:109390000E9021786846817202210181002001909F
:1093A00000BF6846007901090901491C684601713E
:1093B0000079F021884310306946087100BF00BF72
:1093C0006846407901090901491C684641714079A4
:1093D000F021884310306946487100BF68468079A3
:1093E00006218843811C6846817180790821884361
:1093F000014668468171807910218843014668469C
:109400008171807941084900491C684681711421A5
:1094100003A8FAF7D8FE02A8039001A8049001213E
:10942000684681820021C182142101836088231D46
:1094300003AA08A9A2DF0FB030BD30B503461078EB
:10944000C01C1F2801DD0C2030BD02241578681CCB
:1094500010704C550A241578681C10704C551578FE
:10946000681C10704B550020EEE7000070B50646F2
:109470000C461546002060552046FEF7DCFF03A091
:10948000FEF7D9FF2046FDF769FE70BD0A00000017
:1094900008B500200B230A22082100900846FEF799
:1094A00071FF08BD02460A70FF2000021040001242
:1094B00048700220704702460A70FF2000021040E8
:1094C0000012487002207047F8B505460F46164650
:1094D0001C466868002801D10720F8BD2078801C50
:1094E000298840181F2801DD0C20F6E72878401C49
:1094F000C1B22278501C2070B1542178481C2070D1
:1095000077542A88237898196968FAF743FE2078F7
:109510002978401820700020DFE7000038B50546A4
:1095200020480088204988423BD020480078401CD1
:109530001E4908701E48007B097888420FDB1D49D0
:109540001848008875DF0446002C07D01848806949
:10955000002803D0164881692046884721E0002072
:10956000124908701248007C00280FD03B210D489A
:10957000008876DF0446002C07D00D48806900285B
:1095800003D00B4881692046884700BF08484069DE
:10959000002806D0002000900548416968468847A9
:1095A00000BF38BDD0200020FFFF0000CE200020EB
:1095B0006C250020C620002010B5FCF709FE01280C
:1095C00002D0032804D101E0002403E0012401E0DB
:1095D000022400BF00BF204610BD70B502460B46F6
:1095E0005078411C9078884200D100211078884240
:1095F00001D1002070BD196050781826704355685D
:109600002C182046F6E741707047FFB581B0074639
:1096100015460A9E009602223846049B029900F0E5
:1096200014F80446002C02D0204605B0F0BD009688
:10963000102229463846049B00F007F80446002C07
:1096400001D02046F1E70020EFE7FFB587B00646DE
:109650001D46109C0020069020780590002747E0CA
:10966000B900706841180A886846028149884181BA
:10967000002203A902A864DF04900498002802D005
:1096800004980BB0F0BD6846017B099881422ED149
:109690000698002801D0002000E0022001902078E8
:1096A0006946097B4118019808181F2801DD0C2024
:1096B000E7E70698002809D12078401C207022781E
:1096C000511C08982170A854012006902078421956
:1096D00003A902A864DF04900498002801D004982C
:1096E000CFE720786946097B4018207000BF7F1CB7
:1096F0003088B842B4DC0698002806D02178059856
:10970000401C081AC1B2059829540020B9E700008E
:10971000010000009ECADC240EE5A9E093F3A3B586
:109720000000406E3497010000200020000100007E
:10973000544801000024F400FFFF00000000000076
:10974000017F7F000000000000000000000000001A
:109750000000000000000000000000000000000009
:1097600000000000000000000000000000000000F9
:10977000FFFF0000000000000000000000000000EB
:1097800000000000000000000000000000000000D9
:1097900000000000000000000000000000000000C9
:1097A00000000000000000000000000000000000B9
:1097B00000000000000000000000000000000000A9
:1097C0000000000000000000000000000000000099
:1097D0000000000000000000000000000000000089
:1097E0000000000000000000000000000000000079
:1097F0000000000000000000000000000000000069
:109800000000000000000000000000000000000058
:109810000000000000000000000000000000000048
:109820000000000000000000000000000000000038
:049830000000000034
:04000005000140C1F5
:00000001FF
